:04000000FEEFFFF020
:1020000000496E70757420566F6C746167653A0094
:10201000252E326600696E66006E616E00205600E5
:0120200000BF
:10202200000E0001EF6F35C0F2F036C0F3F037C09A
:10203200F4F038C0F5F0F5BF23EF10F021EF10F007
:1020420037EF10F0010EEF6FF2C001F0F3C002F0B3
:10205200F4C003F0F5C004F018EC23F001C0F2F074
:1020620002C0F3F003C0F4F004C0F5F0000E00016A
:10207200F16F000EF06F70C0DFF071C0E0F0EF5151
:10208200D8B446EF10F048EF10F05CEF10F0EF51CB
:10209200D8A44EEF10F050EF10F056EF10F0000EF3
:1020A200D56F2B0ED46F5AEF10F0000ED56F2D0E98
:1020B200D46FD4C0EFF0F2C001F0F3C002F0F4C06C
:1020C20003F0F5C004F0E7EC1FF001040210D8A4FD
:1020D2006DEF10F06FEF10F099EF10F00001EF517B
:1020E200D8B476EF10F078EF10F081EF10F0EFC077
:1020F20074F0DF07D8A0E007000EF16F010EF06F59
:10210200F051740F016E150E026EFBEC22F000010D
:10211200FD0EDF27FF0EE02334C00EF0740E0F6EAB
:10212200DFC010F0E0C011F0D6EC21F0E5EF14F0C2
:10213200F2C001F0F3C002F0F4C003F0F5C004F005
:10214200E7EC1FF001500210D8A4AAEF10F0ACEF98
:1021520010F0C7EF10F00001EF51D8B4B3EF10F058
:10216200B5EF10F0BEEF10F0EFC074F0DF07D8A0AB
:10217200E007000EF16F010EF06FF051740F016E67
:10218200190E026EFBEC22F088EF10F0000E000137
:10219200F66F000EF76F800EF86F3F0EF96F000EAC
:1021A200DE6F000EDD6FF2C001F0F3C002F0F4C08A
:1021B20003F0F5C004F0000E056E000E066E000E70
:1021C200076E000E086E17EC21F0D8B0EBEF10F09E
:1021D200EDEF10F0CCEF11F0FAEF10F0E1C0F6F0F5
:1021E200E2C0F7F0E3C0F8F0E4C0F9F00001DD4B23
:1021F200DE2BF6C00FF0F7C010F0F8C011F0F9C0F6
:1022020012F0000E136E000E146E200E156E410EAB
:10221200166E46EC17F00FC0E1F010C0E2F011C0EC
:10222200E3F012C0E4F00001E151F25D016EE2510F
:10223200F359026EE351F459036EE451F559046EF9
:1022420007EC22F004BE31EF11F00450031002102B
:1022520009E1020E015CD8A031EF11F033EF11F069
:10226200EFEF10F0E1C028F0E2C029F0E3C02AF05D
:10227200E4C02BF0F2C02CF0F3C02DF0F4C02EF02D
:10228200F5C02FF065EC1FF0D8A04AEF11F04CEF2B
:1022920011F0EFEF10F00001F651F25D016EF7510F
:1022A200F359026EF851F459036EF951F559046E5F
:1022B20007EC22F004BE6BEF11F004500310021081
:1022C20007E1020E015CD8B069EF11F06BEF11F07B
:1022D200B3EF11F0F6C0F2F0F7C0F3F0F8C0F4F08B
:1022E200F9C0F5F0CCEF11F0F6C001F0F7C002F042
:1022F200F8C003F0F9C004F0000E056E000E066E81
:10230200200E076E410E086E6DEC19F001C0F6F05A
:1023120002C0F7F003C0F8F004C0F9F00001DD07D5
:10232200D8A0DE07F651F25D016EF751F359026E45
:10233200F851F459036EF951F559046E07EC22F085
:1023420004BEB1EF11F004500310021007E1020EB7
:10235200015CD8B0AFEF11F0B1EF11F0B3EF11F0B3
:102362006BEF11F0F2C028F0F3C029F0F4C02AF0AC
:10237200F5C02BF0F6C02CF0F7C02DF0F8C02EF00F
:10238200F9C02FF065EC1FF0D8A0CAEF11F0CCEF26
:1023920011F075EF11F039C0D7F0D7C0D8F05BBE9D
:1023A200D5EF11F0D7EF11F0DDEF11F05AC0D0F0F8
:1023B2005BC0D1F0E2EF11F0000E0001D16F060E0A
:1023C200D06FD0C0DBF0D1C0DCF00001DB4BDC2BE6
:1023D200660ED819D8A4F0EF11F0F2EF11F012EF57
:1023E20012F0DEBFF9EF11F0F7EF11F005EF12F086
:1023F200000EF66F000EF76F800EF86F3F0EF96F4A
:10240200000EDE6F000EDD6F670ED719D8B40CEF29
:1024120012F00EEF12F012EF12F0DD51DB27DE5157
:10242200DC23000EE66F000EE56FF2C0E7F0F3C0AA
:10243200E8F0F4C0E9F0F5C0EAF0F6C0E1F0F7C068
:10244200E2F0F8C0E3F0F9C0E4F0A3EF12F0E7C065
:1024520001F0E8C002F0E9C003F0EAC004F0F6C0FF
:1024620005F0F7C006F0F8C007F0F9C008F06DEC0F
:1024720019F001C01AF002C01BF003C01CF004C026
:102482001DF043EC1CF01AC0EBF01BC0ECF01CC0BA
:10249200EDF01DC0EEF0EBC001F0ECC002F0EDC0BB
:1024A20003F0EEC004F0E2EC1EF001C0D9F002C06D
:1024B200DAF0E7C028F0E8C029F0E9C02AF0EAC063
:1024C2002BF0EBC013F0ECC014F0EDC015F0EEC031
:1024D20016F0F6C00FF0F7C010F0F8C011F0F9C016
:1024E20012F046EC17F00FC02CF010C02DF011C006
:1024F2002EF012C02FF057EC22F028C0E7F029C0CE
:10250200E8F02AC0E9F02BC0EAF0F6C001F0F7C00B
:1025120002F0F8C003F0F9C004F0000E056E000EE0
:10252200066E200E076E410E086E6DEC19F001C0AA
:10253200F6F002C0F7F003C0F8F004C0F9F00001B1
:10254200E54BE62BDB51E55DE651800A3A6EDC5144
:10255200800A3A58D8A0B0EF12F0B2EF12F028EF8A
:1025620012F0F6C00FF0F7C010F0F8C011F0F9C089
:1025720012F0000E136E000E146EA00E156E400EB9
:10258200166E46EC17F00FC0EBF010C0ECF011C065
:10259200EDF012C0EEF0E7C028F0E8C029F0E9C083
:1025A2002AF0EAC02BF0EBC02CF0ECC02DF0EDC00D
:1025B2002EF0EEC02FF065EC1FF0D8B0E3EF12F072
:1025C200E5EF12F0F0EF12F0000E0001EB6F000EDB
:1025D200EC6F000EED6F000EEE6F19EF13F0E7C017
:1025E20001F0E8C002F0E9C003F0EAC004F0EBC079
:1025F20005F0ECC006F0EDC007F0EEC008F017ECF5
:1026020021F0D8A007EF13F009EF13F019EF13F040
:102612000001D9B10FEF13F011EF13F019EF13F01E
:10262200000EEB6F000EEC6F000EED6F000EEE6F02
:10263200F2C001F0F3C002F0F4C003F0F5C004F000
:10264200EBC005F0ECC006F0EDC007F0EEC008F0FC
:10265200E6EC14F001C0E7F002C0E8F003C0E9F0D4
:1026620004C0EAF0E7C028F0E8C029F0E9C02AF087
:10267200EAC02BF0000E136E000E146E200E156EC3
:10268200410E166EE1C00FF0E2C010F0E3C011F08F
:10269200E4C012F046EC17F00FC02CF010C02DF081
:1026A20011C02EF012C02FF065EC1FF0D8A05CEF25
:1026B20013F05EEF13F087EF13F00001DD4BDE2B1A
:1026C200E1C00FF0E2C010F0E3C011F0E4C012F07C
:1026D200000E136E000E146E200E156E410E166E55
:1026E20046EC17F00FC0E1F010C0E2F011C0E3F0C9
:1026F20012C0E4F0660E0001D819D8A483EF13F0DB
:1027020085EF13F087EF13F0DB4BDC2BE1C0F6F023
:10271200E2C0F7F0E3C0F8F0E4C0F9F0DDC0CEF0BB
:10272200DEC0CFF0000E0001D66F000ED36F000E98
:10273200D26F000EE66F000EE56F7FEF14F0E7C078
:1027420001F0E8C002F0E9C003F0EAC004F0F6C00C
:1027520005F0F7C006F0F8C007F0F9C008F06DEC1C
:1027620019F001C01AF002C01BF003C01CF004C033
:102772001DF043EC1CF01AC0EBF01BC0ECF01CC0C7
:10278200EDF01DC0EEF0EBC001F0ECC002F0EDC0C8
:1027920003F0EEC004F0E2EC1EF002BEDCEF13F038
:1027A200025007E10A0E015CD8B0DAEF13F0DCEF59
:1027B20013F0ECEF13F0EBC001F0ECC002F0EDC04F
:1027C20003F0EEC004F0E2EC1EF001C0D9F002C04A
:1027D200DAF0F1EF13F0000E0001DA6F090ED96F93
:1027E2000001D651D8A4F8EF13F0FAEF13F01EEF60
:1027F20014F0CFBF01EF14F0FFEF13F01EEF14F04F
:10280200F051740FD96EDA6A2E0EDF6EF04BF12B97
:10281200DF07D8A0E007010ED66F1EEF14F0F051CB
:10282200740FD96EDA6A300EDF6EF04BF12BDF07D0
:10283200D8A0E007D207D8A0D307D251D311D8A489
:1028420025EF14F027EF14F010EF14F0F051740F8D
:10285200D96EDA6AD951300FDF6EF04BF12BDF07F8
:10286200D8A0E007E7C028F0E8C029F0E9C02AF0C4
:10287200EAC02BF0EBC013F0ECC014F0EDC015F081
:10288200EEC016F0F6C00FF0F7C010F0F8C011F06D
:10289200F9C012F046EC17F00FC02CF010C02DF06A
:1028A20011C02EF012C02FF057EC22F028C0E7F032
:1028B20029C0E8F02AC0E9F02BC0EAF0F6C001F026
:1028C200F7C002F0F8C003F0F9C004F0000E056E84
:1028D200000E066E200E076E410E086E6DEC19F0AA
:1028E20001C0F6F002C0F7F003C0F8F004C0F9F03E
:1028F2000001CE07D8A0CF07E54BE62BDB51E55D03
:10290200E651800A3A6EDC51800A3A58D8B08CEF10
:1029120014F08EEF14F09CEF14F0F1BF9AEF14F064
:10292200F15109E14B0EF05DD8A09AEF14F09CEF43
:1029320014F0A0EF13F0000EE66F4F0EE56FE551B5
:10294200740FD96EDA6ADF6AF0517408E525016EF8
:10295200740E026EF0C003F0F1C004F09CEC22F0A1
:102962000001F051E55DF06FF151E659F16FEF5161
:10297200D8A4BEEF14F0C1EF14F0010EC2EF14F0B0
:10298200000EE56FE66BEF51D8B4CAEF14F0CCEF4E
:1029920014F0D6EF14F0F007D8A0F107F051740F3D
:1029A200D96EDA6A6000BFF3DFFFE551DF5FE651FF
:1029B200E05B34C00EF0F051740F0F6EDFC010F008
:1029C200E0C011F0D6EC21F012000450800B0D6E25
:1029D200045004240F6E03AEF1EF14F0F3EF14F081
:1029E200F4EF14F00F800F50D8B4FAEF14F0FCEFAC
:1029F20014F011EF15F00F28D8A402EF15F004EF30
:102A020015F00CEF15F0000E016E000E026E000EB6
:102A1200036E000E046E038E000E046E19EF15F0A5
:102A2200000E016E000E026E000E036E000E046EAA
:102A32000850800B0E6E0D500E18D8B423EF15F00F
:102A420025EF15F026EF15F00D8C085008240E6EB8
:102A520007AE2EEF15F030EF15F031EF15F00E80C6
:102A62000E50D8B437EF15F039EF15F04EEF15F0E0
:102A72000E28D8A43FEF15F041EF15F049EF15F0FD
:102A8200000E056E000E066E000E076E000E086E3A
:102A9200078E000E086E56EF15F0000E056E000E42
:102AA200066E000E076E000E086E0F500E5CD8B058
:102AB2005DEF15F05FEF15F086EF15F00DAC64EFEA
:102AC20015F066EF15F068EF15F0800E0D1A0FC0C5
:102AD20010F00EC00FF010C00EF001C010F005C0D3
:102AE20001F010C005F002C010F006C002F010C0E4
:102AF20006F003C010F007C003F010C007F004C0D6
:102B020010F008C004F010C008F0000E106E0F5054
:102B12000EC009F00A6A095E000E0A5A0ABE9BEF4D
:102B220015F00A5009E11A0E095CD8A09BEF15F0C6
:102B32009DEF15F0D4EF15F00150021003100410B0
:102B4200D8A4A6EF15F0A9EF15F0010EAAEF15F023
:102B5200000E106E000E016E000E026E000E036E6D
:102B6200000E046E0EC00FF0DDEF15F010A0BCEFEA
:102B720015F0BEEF15F0C4EF15F0D8901030010932
:102B8200106EC6EF15F0D890103201A0CBEF15F001
:102B9200CDEF15F0CEEF15F0108E0434043203326F
:102BA200023201320F2A0E500F5CD8A0DBEF15F073
:102BB200DDEF15F0B7EF15F00DBCE2EF15F0E4EF25
:102BC20015F024EF16F00F50D8A4EAEF15F0ECEF51
:102BD20015F0F6EF15F0000E016E000E026E000EFB
:102BE200036E000E046E45EF17F0055001260650E5
:102BF2000222075003220850042204A003EF16F019
:102C020005EF16F0B1EF16F010A00AEF16F00CEF78
:102C120016F012EF16F0D89010300109106E14EF72
:102C220016F0D890103201A019EF16F01BEF16F033
:102C32001CEF16F0108E04340432033202320132D9
:102C42000F2AB1EF16F00550015C065002580750EA
:102C520003580450800A096E0850800A0958D8B0F7
:102C620035EF16F037EF16F062EF16F00150055C03
:102C7200096E025006580A6E035007580B6E045034
:102C820008580C6EFF0E0924016EFF0E0A20026E18
:102C9200FF0E0B20036EFF0E0C20046E800E0D1A29
:102CA200106C1050D8A458EF16F05AEF16F06AEFD5
:102CB20016F0010E0126000E0222032204226AEF00
:102CC20016F00550015E0650025A0750035A08508A
:102CD200045A0150021003100410D8A473EF16F026
:102CE20075EF16F0AAEF16F01050D8A47BEF16F08D
:102CF2007DEF16F0AAEF16F0000E016E000E026EC6
:102D0200000E036E000E046E45EF17F0D8900136E8
:102D120002360336043610AE91EF16F093EF16F03A
:102D220094EF16F0018010A099EF16F09BEF16F0C9
:102D32009FEF16F0D8801036A1EF16F0D89010361B
:102D42000F50D8B4A7EF16F0A9EF16F0AAEF16F0BD
:102D52000F0603AEAFEF16F0B1EF16F087EF16F0E5
:102D6200000E0E6E10AEB8EF16F0BAEF16F0D2EFFC
:102D720016F010C009F07F0E0916D8B4C3EF16F092
:102D8200C5EF16F0C9EF16F0010E0E6ED2EF16F077
:102D920001A0CEEF16F0D0EF16F0D2EF16F0C5EF8D
:102DA20016F00E50D8B4D8EF16F0DAEF16F005EFA1
:102DB20017F0010E0126000E02220322042204A0B3
:102DC200E5EF16F0E7EF16F005EF17F001C009F096
:102DD20002C00AF003C00BF004C00CF00C340C3239
:102DE2000B320A32093209C001F00AC002F00BC0EC
:102DF20003F00CC004F00F28D8B402EF17F004EF70
:102E020017F005EF17F00F2A0F28D8B40BEF17F0C1
:102E12000DEF17F015EF17F00F50D8A413EF17F0BE
:102E220015EF17F027EF17F0000E016E000E026E7D
:102E3200000E036E000E046E0F50D8A423EF17F09D
:102E420025EF17F027EF17F0000E0D6E0FA02CEFF5
:102E520017F02EEF17F031EF17F0038E32EF17F065
:102E6200039ED8900F30046E0DAE3AEF17F03CEF90
:102E720017F03DEF17F0048E01C001F002C002F01E
:102E820003C003F004C004F012001250800B1B6E4A
:102E920012501224216E11AE51EF17F053EF17F0BA
:102EA20054EF17F021802150D8B45AEF17F05CEF9D
:102EB20017F06FEF17F02128D8A462EF17F064EF34
:102EC20017F06CEF17F0000E0F6E000E106E000E72
:102ED200116E000E126E118E77EF17F0000E0F6E4C
:102EE200000E106E000E116E000E126E1650800B48
:102EF2001B1A16501624206E15AE82EF17F084EFBF
:102F020017F085EF17F020802050D8B48BEF17F020
:102F12008DEF17F0A0EF17F02028D8A493EF17F049
:102F220095EF17F09DEF17F0000E136E000E146E62
:102F3200000E156E000E166E158EA8EF17F0000E1D
:102F4200136E000E146E000E156E000E166E2050DB
:102F5200D8B4AEEF17F0B0EF17F0B8EF17F021507A
:102F6200D8A4B6EF17F0B8EF17F0C2EF17F0000EC3
:102F72000F6E000E106E000E116E000E126E6CEFD0
:102F820019F015500F026F00CCFF26F06F00D0FF32
:102F920027F026501C6E1D6A1E6A1F6A2750226E79
:102FA200236A246A256A145010026F00CCFF26F0AF
:102FB2006F00D0FF27F026501C26000E1D221E2275
:102FC2001F2227502226000E2322242225221350BC
:102FD20011026F00CCFF26F06F00D0FF27F02650C1
:102FE2001C26000E1D221E221F2227502226000E02
:102FF2002322242225221EC01FF01DC01EF01CC049
:103002001DF01C6A135010026F00CCFF26F06F00F7
:10301200D0FF27F026501C2627501D22000E1E220C
:10302200000E1F2214500F026F00CCFF26F06F001B
:10303200D0FF27F026501C2627501D22000E1E22EC
:10304200000E1F221EC01FF01DC01EF01CC01DF06E
:103052001C6A13500F026F00CCFF26F06F00D0FFE6
:1030620027F026501C2627501D22000E1E22000E7D
:103072001F22155010026F00CCFF26F06F00D0FF08
:1030820027F02650222627502322000E2422000E4B
:103092002522145011026F00CCFF26F06F00D0FFE2
:1030A20027F02650222627502322000E2422000E2B
:1030B2002522155011026F00CCFF26F06F00D0FFC1
:1030C20027F02650176E2750186E196A1A6A19C00F
:1030D2001AF018C019F017C018F0176A17502226F4
:1030E20018502322195024221A5025221CC017F0EE
:1030F2001DC018F01EC019F01FC01AF0190E87EF7C
:1031020018F0D8901A32193218321732E82E82EF9C
:1031120018F01750222618502322195024221A5030
:1031220025221EC01FF01DC01EF01CC01DF01C6A0F
:10313200205021C017F0186A1726000E1822820E9E
:103142001724266EFF0E1820276EBDEF18F0D890B8
:1031520022362336243625361FAEB2EF18F0B4EFEE
:1031620018F0B5EF18F02280D8901C361D361E36A6
:103172001F362606D8A0270624AEC2EF18F0C4EFE9
:1031820018F0A8EF18F0000E206E1FAECBEF18F06B
:10319200CDEF18F0F1EF18F0FF0E1C14176EFF0EB2
:1031A2001D14186EFF0E1E14196E7F0E1F141A6E58
:1031B2001750181019101A10D8B4E2EF18F0E4EFF3
:1031C20018F0E8EF18F0010E206EF1EF18F022A0CF
:1031D200EDEF18F0EFEF18F0F1EF18F0E4EF18F060
:1031E2002050D8B4F7EF18F0F9EF18F01DEF19F0EE
:1031F200010E2226000E23222422252225A004EFDE
:1032020019F006EF19F01DEF19F022C017F023C0D4
:1032120018F024C019F025C01AF01A341A321932E3
:103222001832173217C022F018C023F019C024F048
:103232001AC025F0264A272A27BE28EF19F0275060
:1032420008E12628D8A028EF19F02AEF19F034EF68
:1032520019F0000E226E000E236E800E246E7F0E79
:10326200256E62EF19F027BE41EF19F0275006E1F3
:103272002604D8B03FEF19F041EF19F04DEF19F0E5
:10328200000E226E000E236E000E246E000E256EBE
:10329200000E1B6E62EF19F026C021F0FF0E2216FF
:1032A200FF0E23167F0E2416000E251621A05CEFBA
:1032B20019F05EEF19F05FEF19F0248ED8902130EB
:1032C200256E1B50251222C00FF023C010F024C01F
:1032D20011F025C012F012000450800B116E045040
:1032E2000424186E03AE78EF19F07AEF19F07BEF31
:1032F20019F018801850D8B481EF19F083EF19F043
:1033020098EF19F01828D8A489EF19F08BEF19F06B
:1033120093EF19F0000E016E000E026E000E036EA6
:10332200000E046E038E000E046EA0EF19F0000E64
:10333200016E000E026E000E036E000E046E085047
:10334200800B111A08500824196E07AEABEF19F062
:10335200ADEF19F0AEEF19F019801950D8B4B4EFEF
:1033620019F0B6EF19F0CBEF19F01928D8A4BCEF79
:1033720019F0BEEF19F0C6EF19F0000E056E000E3F
:10338200066E000E076E000E086E078E000E086EA7
:10339200D3EF19F0000E056E000E066E000E076EDA
:1033A200000E086E0550061007100810D8A4DCEFB6
:1033B20019F0DEEF19F0F6EF19F0000E016E000EB3
:1033C200026E000E036E000E046E800E03127F0E5C
:1033D20004121150041201C001F002C002F003C035
:1033E20003F004C004F039EF1BF01850D8A4FCEF2E
:1033F20019F0FEEF19F008EF1AF0000E016E000E40
:10340200026E000E036E000E046E39EF1BF01950AF
:1034120018C009F00A6A095E000E0A5A7F0E0924D2
:10342200126E000E0A20136E01C00DF002C00EF0E3
:1034320003C00FF004C010F0000E016E000E026E09
:10344200000E036E000E046E000E146E000E156E5A
:10345200000E166E000E176E000E196E69EF1AF04E
:103462001950D8B437EF1AF039EF1AF050EF1AF0BA
:10347200D8900D360E360F361036D89001360236F9
:103482000336043617AE48EF1AF04AEF1AF04BEF44
:103492001AF00180D89014361536163617360550B4
:1034A2000D5C06500E5807500F5808501058D8A0FF
:1034B2005DEF1AF05FEF1AF068EF1AF0178C055003
:1034C2000D5E06500E5A07500F5A0850105A192A0C
:1034D200190E19646FEF1AF071EF1AF031EF1AF04A
:1034E2000D500E100F101010D8B47AEF1AF07CEFB6
:1034F2001AF094EF1AF0148094EF1AF0D890013673
:1035020002360336043617AE89EF1AF08BEF1AF043
:103512008CEF1AF00180D89014361536163617360D
:103522001206D8A0130603AE99EF1AF09BEF1AF019
:103532007FEF1AF0000E196E17AEA2EF1AF0A4EF89
:103542001AF0C8EF1AF0FF0E1414096EFF0E1514CC
:103552000A6EFF0E16140B6E7F0E17140C6E0950B6
:103562000A100B100C10D8B4B9EF1AF0BBEF1AF016
:10357200BFEF1AF0010E196EC8EF1AF001A0C4EFE6
:103582001AF0C6EF1AF0C8EF1AF0BBEF1AF0195092
:10359200D8B4CEEF1AF0D0EF1AF0F4EF1AF0010E11
:1035A2000126000E02220322042204A0DBEF1AF0FD
:1035B200DDEF1AF0F4EF1AF001C009F002C00AF0D0
:1035C20003C00BF004C00CF00C340C320B320A3284
:1035D200093209C001F00AC002F00BC003F00CC0AE
:1035E20004F0124A132A13BEFFEF1AF0135008E137
:1035F2001228D8A0FFEF1AF001EF1BF00CEF1BF01E
:10360200000E136E1268000E016E000E026E000EA6
:10361200036E000E046E13BE19EF1BF0135006E189
:103622001204D8B017EF1BF019EF1BF027EF1BF0B5
:10363200000E136E000E126E000E016E000E026E70
:10364200000E036E000E046E000E116E12C018F012
:1036520018A02EEF1BF030EF1BF033EF1BF0038EA0
:1036620034EF1BF0039ED8901830046EEAEF19F085
:1036720012003C50D96EDA6A6F007FFFF6FF200E0F
:10368200F76E000EF86E0800F550250AD8A44CEF2C
:103692001BF04EEF1BF02EEF1CF03C50D96EDA6A95
:1036A200DF2A000E0001716F000E706F70C05EF0B5
:1036B2005A685B683C50D96EDA6A6F007FFFF6FF8A
:1036C200200EF76E000EF86E0800F5502E0AD8A4F0
:1036D2006DEF1BF06FEF1BF07DEF1BF03C50D96ECE
:1036E200DA6ADF2A3CC007F03DC008F066EC20F041
:1036F20007C05AF008C05BF03C50D96EDA6ADF505E
:10370200446E600013F1F6FF200EF76E000EF86EA5
:1037120008006F00D4FF43F09AEF1BF0442AA9EF90
:103722001BF06C0E436EA9EF1BF0000E436EA9EF67
:103732001BF043504C0AD8B48FEF1BF02A0AD8B4BE
:1037420092EF1BF00A0AD8B48FEF1BF096EF1BF032
:10375200600013F1F6FF200EF76E000EF86E0800FF
:10376200F550660AD8A4B8EF1BF0BAEF1BF028EFA9
:103772001CF0EEEF1BF03D50D96EDA6A6F007CFF51
:103782003EF0040EDF263E50D96EDA6A6F0078FFF3
:103792003FF06F0078FF40F06F0078FF41F06F005C
:1037A20078FF42F0F9EF1BF03D50D96EDA6A6F00F4
:1037B2007CFF3EF0040EDF263E50D96EDA6A6F00BF
:1037C20078FF3FF06F0078FF40F06F0078FF41F024
:1037D2006F0078FF42F0F9EF1BF043504C0AD8B467
:1037E200D5EF1BF0200AD8B4BCEF1BF0F9EF1BF0A9
:1037F2003C50D96EDA6A4428DF6E19EF1CF03BC0E8
:1038020034F03FC035F040C036F041C037F042C01E
:1038120038F0600013F1F6FF200EF76E000EF86E1E
:1038220008006F00D4FF39F011EC10F042EF1CF0E9
:10383200600013F1F6FF200EF76E000EF86E08001E
:10384200F550660AD8B400EF1CF028EF1CF03C508B
:10385200D96EDA6ADF2A42EF1CF03C50D96EDA6A7E
:103862006F007FFFF6FF200EF76E000EF86E080065
:10387200F550016E026A3BC003F0C1EC20F028EF64
:103882001CF0120060C02AF061C02BF062C02CF064
:1038920063C02DF01AC02AF01BC02BF01CC02CF004
:1038A2001DC02DF0810E1E6EFF0E1F6E2AC020F06D
:1038B2002BC021F02CC022F02DC023F0180E67EF90
:1038C2001CF0D8902332223221322032E82E62EFCD
:1038D2001CF020501E24286E000E1F20296E29BEC7
:1038E2007CEF1CF0295009E1170E285CD8A07CEF70
:1038F2001CF07EEF1CF088EF1CF01AC01AF01BC0FF
:103902001BF01CC01CF01DC01DF04BEF1DF029BEAA
:103912008DEF1CF08FEF1CF0FFEF1CF028C01EF0A3
:10392200FF0E1F6EFF0E206E7F0E216E000E226EA6
:103932001E669EEF1CF0A6EF1CF0223422322132CA
:1039420020321F321E2E99EF1CF01FC024F020C01F
:1039520025F021C026F022C027F024502A141E6E22
:1039620025502B141F6E26502C14206E27502D1418
:10397200216E1E501F1020102110D8A4C3EF1CF07E
:10398200C5EF1CF0C7EF1CF07EEF1CF02AC01EF042
:103992002BC01FF02CC020F02DC021F0200ED7EF3D
:1039A2001CF0D890213220321F321E32E82ED2EF84
:1039B2001CF01E501F1020102110D8B4E3EF1CF091
:1039C200E5EF1CF0EDEF1CF024502A2625502B22A7
:1039D20026502C2227502D22241C1E6E251C1F6EC1
:1039E200261C206E271C216E1E502A161F502B16D5
:1039F20020502C1621502D1643EF1DF02AC01EF028
:103A02002BC01FF02CC020F02DC021F0200E0FEF94
:103A12001DF0D890213220321F321E32E82E0AEFDA
:103A22001DF01E501F1020102110D8A41BEF1DF0F6
:103A32001DEF1DF027EF1DF0000E2A6E000E2B6EFB
:103A4200000E2C6E000E2D6E43EF1DF0D8902A341E
:103A52001E6E2B341F6E2C34206E2D34216E1E50A0
:103A62001F1020102110D8B439EF1DF03BEF1DF0CC
:103A720043EF1DF0000E2A6E000E2B6E800E2C6E90
:103A8200BF0E2D6E2AC01AF02BC01BF02CC01CF0EA
:103A92002DC01DF01200096E0950D8B453EF1DF06D
:103AA20055EF1DF077EF1DF004BE5CEF1DF05AEFED
:103AB2001DF077EF1DF001C005F002C006F003C053
:103AC20007F004C008F0051E061E071E081E052A80
:103AD200000E06220722082205C00BF006C00CF0D9
:103AE20007C00DF008C00EF07FEF1DF001C00BF013
:103AF20002C00CF003C00DF004C00EF00150021021
:103B020003100410D8A488EF1DF08AEF1DF094EF83
:103B12001DF0000E016E000E026E000E036E000E0E
:103B2200046E25EF1EF0960E0A6E9EEF1DF00A2A15
:103B3200D8900E320D320C320B32000E0B14056E81
:103B4200000E0C14066E000E0D14076EFE0E0E14FF
:103B5200086E0550061007100810D8A4B3EF1DF028
:103B6200B5EF1DF098EF1DF0C3EF1DF00A2A010E0C
:103B72000B26000E0C220D220E22D8900E320D3290
:103B82000C320B32000E0B14056E000E0C14066E76
:103B9200000E0D14076EFF0E0E14086E055006106F
:103BA20007100810D8A4D8EF1DF0DAEF1DF0B7EF18
:103BB2001DF0E2EF1DF00A06D8900B360C360D36DA
:103BC2000E360DBEE7EF1DF0E9EF1DF0F1EF1DF02F
:103BD200020E0A60EFEF1DF0F1EF1DF0DCEF1DF0B9
:103BE2000AB0F6EF1DF0F8EF1DF0F9EF1DF00D9E93
:103BF200D8900A320AC005F0066A076A086A05C048
:103C020008F0076A066A056A05500B1206500C1284
:103C120007500D1208500E120950D8B413EF1EF0BF
:103C220015EF1EF01DEF1EF004BE1CEF1EF01AEF82
:103C32001EF01DEF1EF00E8E0BC001F00CC002F044
:103C42000DC003F00EC004F012006BEC23F034EC54
:103C520023F0000E0A6E010E0B6E0B50D8A4200E3C
:103C62000C6E010EBDEC22F0000E0001686F000E1A
:103C7200696F000E6A6F000E6B6F000E596E000EB8
:103C8200586E3E01F881F8B149EF1EF04BEF1EF07D
:103C920044EF1EF0EF516F00C0FB56F0576A56C05A
:103CA20057F0566A56105C6E57505D6E5CC001F05C
:103CB2005DC002F0000E02BEFF0E036E046E010E26
:103CC2004CEC1DF001C00FF002C010F003C011F067
:103CD20004C012F0000E136E000E146EA00E156ECC
:103CE2003A0E166E46EC17F00FC06CF010C06DF075
:103CF20011C06EF012C06FF068C001F069C002F02E
:103D02006AC003F06BC004F06CC005F06DC006F031
:103D12006EC007F06FC008F0E6EC14F001C068F066
:103D220002C069F003C06AF004C06BF0584A592A15
:103D320059BEA5EF1EF0595009E1320E585CD8A0C9
:103D4200A5EF1EF0A7EF1EF042EF1EF068C001F0D3
:103D520069C002F06AC003F06BC004F0000E056E89
:103D6200000E066E480E076E420E086E6DEC19F0DC
:103D720001C06CF002C06DF003C06EF004C06FF0C1
:103D8200C40E0001FA6F100EFB6F6CC0FCF06DC028
:103D9200FDF06EC0FEF06FC0FFF050EC23F0C40ED9
:103DA200016E1D0E026EA5EC21F0020E0A6EC40E0B
:103DB2000B6E0C6A020EBDEC22F035EF1EF0FEEF28
:103DC200FFF0033404340A6E0A50D8A4EBEF1EF05D
:103DD200EDEF1EF0F7EF1EF0000E016E000E026E08
:103DE200000E036E000E046E64EF1FF001C005F0BA
:103DF20002C006F003C007F004C008F0200E07EF6F
:103E02001FF0D8900832073206320532E82E02EF50
:103E12001FF00550096E038EFF0E0116FF0E0216EB
:103E2200FF0E0316000E0416960E0A5E0ABE1EEF61
:103E32001FF01CEF1FF034EF1FF00A50800A970F9B
:103E4200D8B026EF1FF028EF1FF02AEF1FF0EDEF9A
:103E52001EF0D89004320332023201320A3E2AEFB7
:103E62001FF04CEF1FF01F0E0A643AEF1FF03CEFF9
:103E72001FF044EF1FF0EDEF1EF0D890013602362E
:103E8200033604360A060A50D8A44AEF1FF04CEF54
:103E92001FF03EEF1FF00950D8B452EF1FF054EF5D
:103EA2001FF05CEF1FF0041E031E021E016C000EC9
:103EB20002220322042201C001F002C002F003C068
:103EC20003F004C004F01200000E2814306E000E3D
:103ED2002914316E800E2A14326E7F0E2B14336E2B
:103EE2003050311032103310D8A47AEF1FF07CEF2B
:103EF2001FF084EF1FF0000E286E000E296E000ED8
:103F02002A6E000E2B6E000E2C14306E000E2D1435
:103F1200316E800E2E14326E7F0E2F14336E30509F
:103F2200311032103310D8A499EF1FF09BEF1FF01D
:103F3200A3EF1FF0000E2C6E000E2D6E000E2E6EE3
:103F4200000E2F6E2BAEA8EF1FF0AAEF1FF0B3EFFB
:103F52001FF0286C291ED8B0292A2A1ED8B02A2A76
:103F6200800E2B562FAEB8EF1FF0BAEF1FF0C3EF43
:103F72001FF02C6C2D1ED8B02D2A2E1ED8B02E2A42
:103F8200800E2F56000E281A000E291A000E2A1A29
:103F9200800E2B1A000E2C1A000E2D1A000E2E1A4D
:103FA200800E2F1A2C50285C2D5029582E502A583A
:103FB2002F502B58D8B0E0EF1FF0E2EF1FF0E5EFE3
:103FC2001FF0D890E6EF1FF0D880120064C00BF00B
:103FD20065C00CF066C00DF067C00EF001C00BF0BA
:103FE20002C00CF003C00DF004C00EF00BC005F0CF
:103FF2000CC006F00DC007F00EC008F0180E07EF57
:1040020020F0D8900832073206320532E82E02EF4D
:1040120020F00550096E0A6A09500A10D8A414EF5C
:1040220020F016EF20F036EF20F0D8900B34056E1A
:104032000C34066E0D34076E0E34086E05500610F1
:1040420007100810D8A428EF20F02AEF20F030EF54
:1040520020F0000E026E020E016E65EF20F0000EDF
:10406200026E030E016E65EF20F009280A10D8A433
:104072003DEF20F03FEF20F061EF20F00BC005F0A4
:104082000CC006F00DC007F00EC008F0090ED89063
:104092000536063607360836E82E48EF20F005507A
:1040A200061007100810D8B459EF20F05CEF20F08A
:1040B200010E5DEF20F0000E016E026A65EF20F046
:1040C200000E026E040E016E1200000E0B6E000E48
:1040D2000A6E0750D96EDA6A6F007FFFF6FF200E74
:1040E200F76E000EF86E0800F5502A0AD8A47CEF8D
:1040F20020F07EEF20F0A6EF20F00750D96EDA6AAA
:10410200DF2A0850D96EDA6A020EDF26DF5CD96E2A
:10411200DA6A6F0078FF0AF06F0078FF0BF0BCEFED
:1041220020F00AC001F00BC002F0000E046E0A0E6D
:10413200036E82EC23F0095001240A6E000E022065
:104142000B6E0750D96EDA6ADF2A0750D96EDA6A27
:104152006F007FFFF6FF200EF76E000EF86E08006C
:10416200F550D00F096E090E0964BAEF20F0BCEFCA
:1041720020F092EF20F00AC007F00BC008F0120006
:104182000350D8B4C7EF20F0C9EF20F0D1EF20F0F0
:104192000350D8A4CFEF20F0D1EF20F0D6EF20F0DB
:1041A2000150C3EC23F016EF21F00350D96EDA6A06
:1041B2000A0ED926DE50DE10D8B4E2EF20F0E4EF8A
:1041C20020F0FDEF20F00350D96EDA6A0A0ED926EC
:1041D2000350E16EE26A030EE126DE50E65CE65031
:1041E200800A086EDE50800A0858D8B0FBEF20F033
:1041F200FDEF20F016EF21F00350D96EDA6A030EBC
:10420200D926DF50046E0350D96EDA6ADF500424D7
:10421200D96EDA6A600007F0DFFF0350D96EDA6AFE
:10422200030ED926DE2A000EDD221200000E011432
:10423200096E000E02140A6E800E03140B6E7F0EBE
:1042420004140C6E09500A100B100C10D8A42CEF99
:1042520021F02EEF21F036EF21F0000E016E000E5C
:10426200026E000E036E000E046E000E0514096E3F
:10427200000E06140A6E800E07140B6E7F0E0814D1
:104282000C6E09500A100B100C10D8A44BEF21F041
:104292004DEF21F055EF21F0000E056E000E066E77
:1042A200000E076E000E086E055001180FE1065051
:1042B20002180CE10750031809E108500418D8B499
:1042C20065EF21F067EF21F06AEF21F0D8906BEFF4
:1042D20021F0D880120087EF21F0600023F0F6FF72
:1042E200600027F0F7FF000EF86E1F0EF76403D090
:1042F2000800F55007D06F00DBFFE1FF6F00DFFF22
:10430200E2FFE75097EC23F0084A092A600023F005
:10431200F6FF600027F0F7FF000EF86E1F0EF7643D
:1043220003D00800F55007D06F00DBFFE1FF6F00FC
:10433200DFFFE2FFE7500009D8A4A2EF21F0A4EFCB
:1043420021F06EEF21F01200000E046E000E036EDB
:10435200ADEF21F0034A042A01500324D96EDA6A30
:10436200DF50D8A4B7EF21F0B9EF21F0ABEF21F085
:10437200BEEF21F0034A042A022A60000BF0F6FF86
:10438200200EF76E000EF86E01500324D96EDA6A21
:1043920008006F00D7FFDFFFDF50D8A4D3EF21F072
:1043A200D5EF21F0BBEF21F0120011BEDDEF21F0BD
:1043B200DBEF21F0E1EF21F0000E116E000E106E26
:1043C200000E146E000E136EF1EF21F0000E026E5D
:1043D200200E016E0EC003F0C1EC20F0134A142A25
:1043E2001050135C1450800A126E1150800A125839
:1043F200D8A0FEEF21F000EF22F0E7EF21F00FC08E
:1044020009F00EC00AF0DDEC22F0120004BE0CEF3F
:1044120022F00EEF22F018EF22F001C001F002C0EC
:1044220002F003C003F004C004F031EF22F001C037
:1044320005F002C006F003C007F004C008F0051E34
:10444200061E071E081E052A000E06220722082243
:1044520005C001F006C002F007C003F008C004F076
:104462001200000E046E000E036E4BEF22F0000EDF
:10447200066E000E056E054A062A065009E1A50ED3
:10448200055CD8A047EF22F049EF22F03CEF22F082
:10449200034A042A0150035C02500458D8A054EF86
:1044A20022F056EF22F038EF22F01200000E2C1A02
:1044B200000E2D1A000E2E1A800E2F1A28C001F09F
:1044C20029C002F02AC003F02BC004F02CC005F072
:1044D2002DC006F02EC007F02FC008F0E6EC14F055
:1044E20001C028F002C029F003C02AF004C02BF05A
:1044F200120046C048F086EF22F045C03BF0480E5D
:104502003C6E47C03DF03AEC1BF0600023F1F6FF31
:10451200200EF76E000EF86E0800F5500009D8A4C0
:1045220095EF22F097EF22F07EEF22F0000E466E1A
:10453200000E456E120002C007F001C006F0AFEF98
:1045420022F00750D96EDA6ADF50056E072A06504C
:10455200D96EDA6A600017F0DFFF062A0306D8A0D8
:104562000406032806E10428D8A4BAEF22F0BCEF1F
:1045720022F0A2EF22F012000D6E020E0D60C4EFC7
:1045820022F0C6EF22F0CFEF22F00A500F0B800983
:104592000E6E0E50A6EC23F0D6EF22F00A500F0B4F
:1045A200C0090E6E0E50A6EC23F00BC008F00CC032
:1045B20009F06CEC21F01200000E0D6E000E0C6E74
:1045C200ECEF22F00BC001F0026A0AC003F0C1EC6A
:1045D20020F00C4A0D2A09500C24D96EDA6ADF50F9
:1045E2000B6E0B50D8A4F8EF22F0FAEF22F0E3EFB3
:1045F20022F0120001C004F0022A0204036E6000DD
:104602000FF0F6FF200EF76E000EF86E042A040477
:10461200D96EDA6A08006F00D7FFDFFFDF50D8A437
:1046220015EF23F017EF23F0FDEF22F012000150F7
:10463200021003100410D8B421EF23F023EF23F06B
:104642002BEF23F0000E011A000E021A000E031ABD
:10465200800E041A01C001F002C002F003C003F090
:1046620004C004F012003E01F851F30B0409F86F84
:10467200F889C00EF117C2803A0140813E01F88FDD
:10468200C00EFF17000EEF6F000EF06F000EF66FF8
:10469200000EF76F000EF36F000EF36F1200FC0EA8
:1046A200496EFAC04AF0000E4E6E000E4D6E000EBC
:1046B200556E000E546E4A0E456EFBC046F0490E12
:1046C200476E7AEC22F00001FA514D24D96EDA6A73
:1046D200DF6A1200000E026E0F0E016E32EC22F043
:1046E200000EC36E000EC56E010EA6EC23F0380E4E
:1046F200A6EC23F00C0EA6EC23F0060EA6EC23F09B
:104702001200015003026F00CCFF05F06F00D0FFD2
:1047120006F001500402F350062602500302F35041
:10472200062605C001F006C002F01200076E600006
:104732001FF0BBFFBD80BD820000BD92000E026E65
:10474200010E016E32EC22F01200076E60001FF0C3
:10475200BBFFBD90BD820000BD92000E026E030E33
:10476200016E32EC22F0120000EE60F06E0EEE6A84
:10477200E806FDE15E6A5D6A5C6A5B6A5A6A00018C
:0647820026EF1EF01200FC
:020000040001F9
:04FFFC00B5EF23F04A
:020000040030CA
:0A000000F8FFFFFF9FFFFFFFFFFF67
:00000001FF
