:04000000FEEFFFF020
:102000000048656C6C6F20576F726C640053656399
:102010006F6E64206C696E650000000ECB6E000E62
:10202000C36E000EBB6E000E3A01506F000ECD6EF7
:10203000000EC56E000EBD6E000E706F66EC10F0E7
:10204000010E036E4EEC10F0020E036E030E31EC27
:1020500010F00D0E036E4EEC10F02DEF10F0FEEFB1
:10206000FFF0046E0304D8A438EF10F03AEF10F03C
:1020700040EF10F0045080098BEC10F04DEF10F0A1
:10208000020E0318D8A447EF10F049EF10F04DEFFF
:1020900010F00450C0098BEC10F0120058EF10F053
:1020A00060000FF0F6FF0800F5507BEC10F0032AFB
:1020B00060000FF0F6FF0800F5500009D8A463EFA8
:1020C00010F065EF10F050EF10F01200060E046EE5
:1020D000130E036EAE0EE82EFED7032EFCD7042E91
:1020E000FAD73C0E8BEC10F00C0E8BEC10F0060EB9
:1020F0008BEC10F01200026E60000BF0CDFFCB8075
:10210000CB820000CB92140E016E7A0EE82EFED721
:10211000012EFCD71200026E60000BF0CDFFCB90B9
:10212000CB820000CB92140E016E7A0EE82EFED701
:10213000012EFCD71200000EF86E200EF76E000183
:042140000DEF10F09F
:020000040001F9
:04FFFC009BEF10F077
:020000040030CA
:0A000000F8FFFFFF9FFFFFFFFFFF67
:00000001FF
