:0400000057EF20F0A6
:022000000000DE
:104008002B102B102B102B102B102B102B102B10D0
:104018002D102B102B102B102B102B102B102B10BE
:104028002B102B102B102B102B102B102B102B10B0
:104038002B102B102B102B102B102B102B102B10A0
:104048002B102B102B102B102B102B102B102B1090
:104058002B102B102B102B102B102B102B102B1080
:104068002B102B102B102B102B102B102B102B1070
:104078002B102B102B102B102B102B102B102B1060
:104088002B102B102B102B102B102B102B102B1050
:104098002B102B102B102B102B102B102B102B1040
:0A40A8002B102B10FF00D1EF20F0C9
:1040B400CBA05FEF20F061EF20F08EEF20F0CD92E7
:1040C400000E046E000E036ECD80030E026E8A0E87
:1040D400016E560EE82EFED7012EFCD7022EFAD71B
:1040E400CD90030E026E8A0E016E560EE82EFED798
:1040F400012EFCD7022EFAD7034A042A04BE8CEF01
:1041040020F0045009E10A0E035CD8A08CEF20F0E3
:104114008EEF20F066EF20F03901A191CD901100CF
:10412400000ECB6EC368000EBB6E000E3A01506FDA
:10413400000ECD6E000EC56E000EBD6E000E706FCB
:10414400010E516FC2EC20F0CD820B0E066E260ECE
:10415400056E5E0EE82EFED7052EFCD7062EFAD786
:10416400CD920B0E066E260E056E5E0EE82EFED761
:10417400052EFCD7062EFAD7A6EF20F057EF20F035
:10418400D28AD28ED28CD280390181819181A1913F
:10419400000ED76E400ED66E080ED56E1200080EB5
:1041A400D56E400ED66E000ED76E000192EF20F051
:020000040030CA
:0A000000F8FFFFFF9FFFFFFFFFFF67
:00000001FF
