:0400000057EF20F0A6
:10200000002A2A2A2A2A2A2A2A2A2A2A2A2A2A2A5A
:102010002A004F70656E696E6720426F782E2E2EF3
:1020200000436C6F73696E6720426F782E2E2E000E
:1020300050617373776F72642052657365740042E8
:102040006F7820636C6F7365642E2E2E004E65775B
:102050002050617373776F72643A005F5F5F5F0057
:06206000256400200000D1
:104008002B102B102B102B102B102B102B102B10D0
:1040180050122B102B102B102B102B102B102B1099
:104028002B102B102B102B102B102B102B102B10B0
:104038002B102B102B102B102B102B102B102B10A0
:104048002B102B102B102B102B102B102B102B1090
:104058002B102B102B102B102B102B102B102B1080
:104068002B102B102B102B102B102B102B102B1070
:104078002B102B102B102B102B102B102B102B1060
:104088002B102B102B102B102B102B102B102B1050
:104098002B102B102B102B102B102B102B102B1040
:1040A8002B102B10FF00B6EF29F03F6840684168DD
:1040B80042684368446845684668000E0A6E5B0EAD
:1040C8000B6E0B50D8A4200E0C6E020EDFEC28F0FD
:1040D80074EF20F048EC22F001C03FF002C040F03D
:1040E80040BE79EF20F07BEF20F06EEF20F040BE6D
:1040F80089EF20F0405007E10A0E3F5CD8B087EF07
:1041080020F089EF20F06EEF20F0330E1A6E600E6B
:104118001B6E3FC01CF040C01DF051EC29F0000E92
:104128000A6E330E0B6E0C6A020EDFEC28F0A3EF5A
:1041380020F048EC22F001C041F002C042F042BE3B
:10414800A8EF20F0AAEF20F09DEF20F042BEB8EFD4
:1041580020F0425007E10A0E415CD8B0B6EF20F0DB
:10416800B8EF20F09DEF20F0330E1A6E600E1B6E34
:1041780041C01CF042C01DF051EC29F0010E0A6E3E
:10418800330E0B6E0C6A020EDFEC28F0D2EF20F033
:1041980048EC22F001C043F002C044F044BED7EF1F
:1041A80020F0D9EF20F0CCEF20F044BEE7EF20F06C
:1041B800445007E10A0E435CD8B0E5EF20F0E7EF82
:1041C80020F0CCEF20F0330E1A6E600E1B6E43C049
:1041D8001CF044C01DF051EC29F0020E0A6E330E9B
:1041E8000B6E0C6A020EDFEC28F001EF21F048ECB0
:1041F80022F001C045F002C046F046BE06EF21F0AD
:1042080008EF21F0FBEF20F046BE16EF21F04650F4
:1042180007E10A0E455CD8B014EF21F016EF21F043
:10422800FBEF20F0330E1A6E600E1B6E45C01CF0BB
:1042380046C01DF051EC29F0030E0A6E330E0B6ECA
:104248000C6A020EDFEC28F03FC001F040C002F01B
:10425800030E046EE80E036EE4EC29F001C02DF0A5
:1042680002C02EF041C001F042C002F0000E046E00
:10427800640E036EE4EC29F001502D242F6E0250D9
:104288002E20306E43C001F044C002F0000E046ED0
:104298000A0E036EE4EC29F001502F24316E02500F
:1042A8003020326E455031243D6E465032203E6EED
:1042B8003DC02BF03EC02CF0120000016B51D96EAE
:1042C800DA6A6F007FFFF6FF200EF76E0800F550E0
:1042D800250AD8A472EF21F074EF21F035EF22F00F
:1042E8006B51D96EDA6ADF2A000E4E6E000E4D6EE3
:1042F8004DC057F04F6850686B51D96EDA6ADF507D
:104308006F6F6000BFF1F6FF200EF76E0800F550E2
:10431800640AD8B492EF21F094EF21F0A3EF21F0D2
:104328006000BFF1F6FF200EF76E0800F550690A2D
:10433800D8A4A1EF21F0A3EF21F02EEF22F06C51C9
:10434800D96EDA6A020EDF26DF5CD96EDA6A6F0090
:1043580078FF70F06F0078FF71F06B51D96EDA6AF0
:104368006F29DF6E200E746F71BFBDEF21F0C0EFB3
:1043780021F0010EC1EF21F0000E6E6F7407745129
:104388008E0FD96EDA6A70C060F071C061F0000EED
:10439800636F0A0E626FE9EC25F060C066F061C0D9
:1043A80067F01BEC29F000016651300FDF6E70C01A
:1043B80060F071C061F0000E636F0A0E626F24EC4A
:1043C80025F060C070F061C071F00001705171118A
:1043D800D8B4F1EF21F0F3EF21F0FBEF21F07451A5
:1043E800D8A4F9EF21F0FBEF21F0C2EF21F07451CE
:1043F800D8B401EF22F003EF22F023EF22F06E5140
:10440800D8B409EF22F00BEF22F023EF22F0740763
:1044180074518E0FD96EDA6A2D0EDF6E23EF22F0FB
:1044280074518E0FD96EDA6ADF506D6F6D51606FFF
:10443800616B6AC062F09AEC26F00001742B200EC2
:104448007419D8A42AEF22F02CEF22F014EF22F0EE
:1044580047EF22F000016B51D96EDA6ADF2A47EF85
:1044680022F06B51D96EDA6A6F007FFFF6FF200EDB
:10447800F76E0800F550606F616B6AC062F09AECE5
:1044880026F02EEF22F0120003680468CA80CAA83A
:1044980050EF22F052EF22F05DEF22F0000E046E92
:1044A800010E036ECAB85BEF22F05DEF22F056EF03
:1044B80022F0CAAA62EF22F064EF22F06FEF22F036
:1044C800000E046E040E036ECABA6DEF22F06FEF91
:1044D80022F068EF22F0CAA674EF22F076EF22F0FD
:1044E80081EF22F0000E046E070E036ECAB67FEF4E
:1044F80022F081EF22F07AEF22F0CCA886EF22F0AA
:1045080088EF22F093EF22F0000E046E0F0E036E78
:10451800CCB891EF22F093EF22F08CEF22F0CA9002
:10452800CA82CAA89AEF22F09CEF22F0A7EF22F0E5
:10453800000E046E020E036ECAB8A5EF22F0A7EFB4
:1045480022F0A0EF22F0CAAAACEF22F0AEEF22F0E0
:10455800B9EF22F0000E046E050E036ECABAB7EF6B
:1045680022F0B9EF22F0B2EF22F0CAA6BEEF22F095
:10457800C0EF22F0CBEF22F0000E046E080E036E9F
:10458800CAB6C9EF22F0CBEF22F0C4EF22F0CCA8D4
:10459800D0EF22F0D2EF22F0DDEF22F0000E046E11
:1045A800000E036ECCB8DBEF22F0DDEF22F0D6EF81
:1045B80022F0CA92CA84CAA8E4EF22F0E6EF22F0F9
:1045C800F1EF22F0000E046E030E036ECAB8EFEF8F
:1045D80022F0F1EF22F0EAEF22F0CAAAF6EF22F079
:1045E800F8EF22F003EF23F0000E046E060E036EC0
:1045F800CABA01EF23F003EF23F0FCEF22F0CAA6BA
:1046080008EF23F00AEF23F015EF23F0000E046EF5
:10461800090E036ECAB613EF23F015EF23F00EEF61
:1046280023F0CCA81AEF23F01CEF23F027EF23F098
:10463800000E046E0A0E036ECCB825EF23F027EFA8
:1046480023F020EF23F0CA9403C001F004C002F065
:1046580012000C50D96EDA6A6F007FFFF6FF200E49
:10466800F76E0800F550250AD8A43DEF23F03FEF78
:1046780023F0FCEF23F00C50D96EDA6ADF2A000E23
:104688004E6E000E4D6E4DC057F04F6850680C507E
:10469800D96EDA6ADF50106E600043F0F6FF200E24
:1046A800F76E0800F550640AD8B45DEF23F05FEFA9
:1046B80023F06EEF23F0600043F0F6FF200EF76E54
:1046C8000800F550690AD8A46CEF23F06EEF23F0C8
:1046D800F6EF23F00D50D96EDA6A020EDF26DF5CA2
:1046E800D96EDA6A6F0078FF11F06F0078FF12F068
:1046F8000C50D96EDA6A1028DF6E200E156E12BEC5
:1047080088EF23F08BEF23F0010E8CEF23F0000EDF
:104718000F6E150615508E0FD96EDA6A11C001F0AA
:1047280012C002F0000E046E0A0E036E42EC26F070
:1047380001C007F002C008F06BEC29F00750300FF9
:10474800DF6E11C001F012C002F0000E046E0A0EF6
:10475800036E87EC25F001C011F002C012F0115071
:104768001210D8B4BAEF23F0BCEF23F0C4EF23F053
:104778001550D8A4C2EF23F0C4EF23F08DEF23F037
:104788001550D8B4CAEF23F0CCEF23F0EBEF23F0A9
:104798000F50D8B4D2EF23F0D4EF23F0EBEF23F08F
:1047A800150615508E0FD96EDA6A2D0EDF6EEBEFF7
:1047B80023F015508E0FD96EDA6ADF500E6E0E5048
:1047C800016E026A0BC003F0F1EC26F0152A200EE8
:1047D8001518D8A4F2EF23F0F4EF23F0DDEF23F05F
:1047E8000EEF24F00C50D96EDA6ADF2A0EEF24F0AF
:1047F8000C50D96EDA6A6F007FFFF6FF200EF76E55
:104808000800F550016E026A0BC003F0F1EC26F0C7
:10481800F6EF23F012003901DC8D020EDF6F81EC18
:104828002AF09EEC29F0CDEC29F02CEC2AF08AEC49
:104838002AF059EC2AF0F9EC29F0000E0001696F12
:10484800120E6A6F6A51D8A4200E6B6F010E9DEC90
:1048580028F047EC27F0000E00018D6F000E8C6FDA
:10486800AE0E796F600E7A6F8C5105087B6F8D5193
:10487800D8A0E82A00087C6FFFEC28F0000E0001A1
:10488800696FAE0E6A6F6B6B020E9DEC28F0060E18
:1048980000018B6F130E8A6FAD0EE82EFED78A2F9C
:1048A800FCD78B2FFAD700D000018C4B8D2B8DBFF6
:1048B80067EF24F08D5109E1050E8C5DD8A067EFF4
:1048C80024F069EF24F034EF24F0000E696F210E14
:1048D8006A6F6A51D8A4200E6B6F010E9DEC28F008
:1048E800000E0001696F630E6A6F6A51D8A4200E2A
:1048F8006B6F020E9DEC28F082EC27F0060E00018B
:104908008B6F130E8A6FAD0EE82EFED78A2FFCD759
:104918008B2FFAD700D0000E0001696F3F0E6A6F27
:104928006A51D8A4200E6B6F010E9DEC28F09BEF06
:0649380024F057EF20F00F
:104940006F00D8FF49F06F00DCFF4AF06F00E0FF16
:104950004BF06F00D4FF4CF0CBA0B1EF24F0B3EFDD
:1049600024F015EF25F086EC2AF0000E0A6E4D0EAD
:104970000B6E0B50D8A4200E0C6E010EDFEC28F04D
:1049800059EC20F02BC055F02CC056F0100E486E9C
:10499000390E476E0E0EE82EFED7472EFCD7482E56
:1049A000FAD786EC2AF0010E0A6E300E0B6E0B5011
:1049B000D8A4200E0C6E010EDFEC28F0000E0A6E5B
:1049C000010E0B6E0B50D8A4200E0C6E020EDFEC05
:1049D00028F0100E486E390E476E0E0EE82EFED7E8
:1049E000472EFCD7482EFAD786EC2AF055C001F0A6
:1049F00056C002F0000E046E640E036E87EC25F0C4
:104A00000150096E000E36EC29F055C001F056C079
:104A100002F0000E046E640E036E42EC26F00150AC
:104A2000096E020E36EC29F0FF003901A1916000F9
:104A300033F1F5FF60002FF1F8FF60002BF1F7FF75
:104A4000600027F1F6FF1100000E0001656F63BFE3
:104A50002EEF25F02CEF25F034EF25F0626D631F6B
:104A6000D8B0632B010E656F61BF3BEF25F039EFC6
:104A700025F041EF25F0606D611FD8B0612B010E6C
:104A8000651B000E676F000E666F62516311D8B42C
:104A90004CEF25F04EEF25F076EF25F0010E646F18
:104AA00056EF25F0D89062376337642B63AF5BEF26
:104AB00025F05DEF25F052EF25F0D8906637673787
:104AC0006251605D63516159D8A069EF25F06BEFC9
:104AD00025F070EF25F06251605F6351615B668184
:104AE000D89063336233642F5DEF25F06551D8B4FD
:104AF0007CEF25F07EEF25F082EF25F0666D671FD5
:104B0000D8B0672B66C060F067C061F01200000E7D
:104B1000066E04BE90EF25F08EEF25F096EF25F09F
:104B2000036C041ED8B0042A010E066E02BE9DEF6F
:104B300025F09BEF25F0A3EF25F0016C021ED8B005
:104B4000022A010E061A000E086E000E076E0350B0
:104B50000410D8B4AEEF25F0B0EF25F0D8EF25F073
:104B6000010E056EB8EF25F0D89003360436052AFD
:104B700004AEBDEF25F0BFEF25F0B4EF25F0D890DF
:104B8000073608360350015C04500258D8A0CBEF1A
:104B900025F0CDEF25F0D2EF25F00350015E045053
:104BA000025A0780D89004320332052EBFEF25F059
:104BB0000650D8B4DEEF25F0E0EF25F0E4EF25F065
:104BC000076C081ED8B0082A07C001F008C002F020
:104BD0001200000E0001656F61BFF3EF25F0F1EFE9
:104BE00025F0F9EF25F0606D611FD8B0612B010E43
:104BF000656F63BF00EF26F0FEEF25F004EF26F0AF
:104C0000626D631FD8B0632B62516311D8B40BEF90
:104C100026F00DEF26F031EF26F0010E646F15EF50
:104C200026F0D89062376337642B63AF1AEF26F013
:104C30001CEF26F011EF26F06251605D635161595F
:104C4000D8A025EF26F027EF26F02BEF26F06251B3
:104C5000605F6351615BD89063336233642F1CEFF4
:104C600026F06551D8B437EF26F039EF26F03DEF46
:104C700026F0606D611FD8B0612B60C060F061C02C
:104C800061F01200000E066E02BE4BEF26F049EFF7
:104C900026F051EF26F0016C021ED8B0022A010E58
:104CA000066E04BE58EF26F056EF26F05CEF26F0B5
:104CB000036C041ED8B0042A03500410D8B463EF68
:104CC00026F065EF26F089EF26F0010E056E6DEFF8
:104CD00026F0D89003360436052A04AE72EF26F08B
:104CE00074EF26F069EF26F00350015C045002587F
:104CF000D8A07DEF26F07FEF26F083EF26F003505B
:104D0000015E0450025AD89004320332052E74EF2B
:104D100026F00650D8B48FEF26F091EF26F095EFED
:104D200026F0016C021ED8B0022A01C001F002C0B8
:104D300002F0120000016251D8B4A1EF26F0A3EFF7
:104D400026F0ABEF26F06251D8A4A9EF26F0ABEF26
:104D500026F0B0EF26F060518FEC2AF0F0EF26F04D
:104D60006251D96EDA6A0A0ED926DE50DE10D8B446
:104D7000BCEF26F0BEEF26F0D7EF26F06251D96ED9
:104D8000DA6A0A0ED9266251E16EE26A030EE12662
:104D9000DE50E65CE650800A676FDE50800A675995
:104DA000D8B0D5EF26F0D7EF26F0F0EF26F062511D
:104DB000D96EDA6A030ED926DF50636F6251D96E5D
:104DC000DA6ADF506325D96EDA6A600083F1DFFFAB
:104DD0006251D96EDA6A030ED926DE2A000EDD2270
:104DE00012000350D8B4F7EF26F0F9EF26F001EFE8
:104DF00027F00350D8A4FFEF26F001EF27F006EFCD
:104E000027F0015090EC2AF046EF27F00350D96EBE
:104E1000DA6A0A0ED926DE50DE10D8B412EF27F077
:104E200014EF27F02DEF27F00350D96EDA6A0A0E3F
:104E3000D9260350E16EE26A030EE126DE50E65CFD
:104E4000E650800A086EDE50800A0858D8B02BEF72
:104E500027F02DEF27F046EF27F00350D96EDA6ADE
:104E6000030ED926DF50046E0350D96EDA6ADF5084
:104E70000424D96EDA6A600007F0DFFF0350D96EB0
:104E8000DA6A030ED926DE2A000EDD221200000E99
:104E90000001616F1F0E606F85EC29F0000E0001AC
:104EA000646F000E636F000E666F000E656F71EC2D
:104EB0002AF00001626F62B102D0CC9A01D0CC8A94
:104EC0000001654B662B66BF6FEF27F0665109E165
:104ED000A50E655DD8A06FEF27F071EF27F057EFB3
:104EE00027F0634B642B64BF7FEF27F0645109E127
:104EF000640E635DD8A07FEF27F081EF27F053EFBA
:104F000027F01200000E0001616F430E606F85EC08
:104F100029F0000E0001646F000E636F000E666FD3
:104F2000000E656F71EC2AF00001626F62B102D071
:104F3000CC9A01D0CC8A0001654B662B66BFAAEFE4
:104F400027F0665109E1A50E655DD8A0AAEF27F00C
:104F5000ACEF27F092EF27F0634B642B64BFBAEFFE
:104F600027F0645109E1640E635DD8A0BAEF27F021
:104F7000BCEF27F08EEF27F01200D9EF27F060008A
:104F80009FF1F6FF6000A3F1F7FF000EF86E1F0E11
:104F9000F76403D00800F55007D06F00DBFFE1FF96
:104FA0006F00DFFFE2FFE7500AEC2AF00001674BD9
:104FB000682B60009FF1F6FF6000A3F1F7FF000E81
:104FC000F86E1F0EF76403D00800F55007D06F008D
:104FD000DBFFE1FF6F00DFFFE2FFE7500009D8A42D
:104FE000F4EF27F0F6EF27F0BFEF27F0120012EFF3
:104FF00028F0600023F0F6FF600027F0F7FF000EB6
:10500000F86E1F0EF76403D00800F55007D06F004C
:10501000DBFFE1FF6F00DFFFE2FFE7503BEC2AF030
:10502000084A092A600023F0F6FF600027F0F7FF26
:10503000000EF86E1F0EF76403D00800F55007D07D
:105040006F00DBFFE1FF6F00DFFFE2FFE7500009C9
:10505000D8A42DEF28F02FEF28F0F9EF27F0120059
:10506000000E0001636F000E626F4AEF28F0000E21
:10507000656F000E646F644B652B655109E1A50EE9
:10508000645DD8A046EF28F048EF28F03BEF28F009
:10509000624B632B6051625D61516359D8A053EF3D
:1050A00028F055EF28F037EF28F01200000E046EBC
:1050B000000E036E6FEF28F0000E066E000E056EF8
:1050C000054A062A065009E1A50E055CD8A06BEF3B
:1050D00028F06DEF28F060EF28F0034A042A015011
:1050E000035C02500458D8A078EF28F07AEF28F03B
:1050F0005CEF28F0120076C078F088EF28F075C0D9
:105100006AF0780E00016B6F77C06CF061EC21F0F3
:105110006000E3F1F6FF200EF76E0800F55000097D
:10512000D8A495EF28F097EF28F07FEF28F0000E35
:105130000001766F000E756F120000016C6F020E99
:1051400000016C61A6EF28F0A8EF28F0B1EF28F07D
:1051500069510F0B80096D6F6D511BEC2AF0B8EF90
:1051600028F069510F0BC0096D6F6D511BEC2AF0CF
:105170006AC067F06BC068F0BDEC27F0120017C082
:1051800019F0CBEF28F016C00BF0190E0C6E18C0FA
:105190000DF02DEC23F0600067F0F6FF200EF76EA7
:1051A0000800F5500009D8A4D8EF28F0DAEF28F06D
:1051B000C3EF28F0000E176E000E166E12000D6E73
:1051C000020E0D60E6EF28F0E8EF28F0F1EF28F08E
:1051D0000A500F0B80090E6E0E504AEC2AF0F8EFC1
:1051E00028F00A500F0BC0090E6E0E504AEC2AF040
:1051F0000BC008F00CC009F0F7EC27F012007B0E92
:1052000000017D6F79C07EF0000E826F000E816F0D
:10521000000E896F000E886F7E0E756F7AC076F073
:105220007D0E776F7BEC28F0000179518125D96ED6
:10523000DA6ADF6A1200000167BF21EF29F023EF6D
:1052400029F029EF29F066C066F067C067F035EFF6
:1052500029F066C068F067C069F0681F691F684B75
:10526000692B68C066F069C067F012000A6E000E14
:105270003901E56F60002BF0E0F9600027F0E3F9F9
:10528000E585D29E550EE66FAA0EE66FE583E5B37F
:105290004CEF29F04EEF29F047EF29F0D28EE5953B
:1052A00012001C0E1E6E1AC01FF0000E236E000EA0
:1052B000226E000E2A6E000E296E1F0E166E1BC087
:1052C00017F01E0E186EBFEC28F01A502224D96E6B
:1052D000DA6ADF6A120008BE70EF29F072EF29F077
:1052E00078EF29F007C007F008C008F084EF29F034
:1052F00007C009F008C00AF0091E0A1E094A0A2A56
:1053000009C007F00AC008F012000001FF0E601784
:10531000030E61177AA88FEF29F091EF29F098EF2B
:1053200029F0060ED89060376137E82E92EF29F009
:105330006151796E600083F178FF1200000E000168
:10534000616F0F0E606F30EC28F0000EC56EC494D4
:10535000C496010E1BEC2AF0380E1BEC2AF00C0E42
:105360001BEC2AF0060E1BEC2AF0120000EE8EF069
:105370002A0EEE6AE806FDE100EE4DF00B0EEE6A35
:10538000E806FDE1080ED56E400ED66E000ED76E13
:10539000000EF86E00010FEF24F0000ECB6EC36814
:1053A000000EBB6E000E3A01506FD28AD28ED28CA4
:1053B000D280390181819181A191000ED76E400E7A
:1053C000D66E080ED56E1200015003026F00CCFF9E
:1053D00005F06F00D0FF06F001500402F3500626DE
:1053E00002500302F350062605C001F006C002F089
:1053F0001200CC9ABC9A3A01609BC49A8C0E7A6EC9
:10540000010E796E990E786E3F015E51F30B04091F
:105410005E6F12000001666F60009BF1BDFFBC84EF
:10542000BC860000BC96000E0001616F010E606F2B
:1054300030EC28F012000001666F60009BF1BDFFA8
:10544000BC94BC860000BC96000E0001616F030E88
:10545000606F30EC28F01200010EAE6E000EAD6EE3
:10546000000EAF6E9D0EAB6E080EAA6E3901A495AC
:10547000F00EAC6E1200076E60001FF0BDFFBC8422
:10548000BC860000BC96000E026E010E016E56EC4A
:1054900028F01200076E60001FF0BDFFBC94BC86B0
:1054A0000000BC96000E026E030E016E56EC28F052
:1054B0001200550E3A01BF6FAA0EBF6FBF910A0EC0
:1054C0000B6F550EBF6FAA0EBF6FBF811200000E8B
:1054D000CA6E000EBA6E000E3A01406FF80EC26E30
:1054E00012007ABA76EF2AF079EF2AF0010E7AEFFD
:1054F0002AF0000E1200CC98BC983A016099C4883A
:10550000120067EC2AF07BEC2AF01200010E4AEC44
:105510002AF012008DEC2AF01200AC8E120012005C
:02552000120077
:020000040030CA
:0A000000F8FFFFFF9FFFFFFFFFFF67
:00000001FF
