:04000000FEEFFFF020
:102000000054657374696E67204B65797061643A3A
:0B20100020005F5F5F5F0025640000A0
:10201C003F68406841684268436844684568466860
:10202C00000E0A6E120E0B6E0B50D8A4200E0C6E06
:10203C00020E6BEC14F029EF10F016EC11F001C04D
:10204C003FF002C040F040BE2EEF10F030EF10F029
:10205C0023EF10F040BE3EEF10F0405007E10A0EA7
:10206C003F5CD8B03CEF10F03EEF10F023EF10F0D7
:10207C00330E1A6E170E1B6E3FC01CF040C01DF0C5
:10208C008BEC14F0000E0A6E330E0B6E0C6A020E03
:10209C006BEC14F058EF10F016EC11F001C041F09D
:1020AC0002C042F042BE5DEF10F05FEF10F052EF55
:1020BC0010F042BE6DEF10F0425007E10A0E415C89
:1020CC00D8B06BEF10F06DEF10F052EF10F0330E44
:1020DC001A6E170E1B6E41C01CF042C01DF08BEC2B
:1020EC0014F0010E0A6E330E0B6E0C6A020E6BECC2
:1020FC0014F087EF10F016EC11F001C043F002C0A1
:10210C0044F044BE8CEF10F08EEF10F081EF10F025
:10211C0044BE9CEF10F0445007E10A0E435CD8B06B
:10212C009AEF10F09CEF10F081EF10F0330E1A6E56
:10213C00170E1B6E43C01CF044C01DF08BEC14F04A
:10214C00020E0A6E330E0B6E0C6A020E6BEC14F060
:10215C00B6EF10F016EC11F001C045F002C046F0DD
:10216C0046BEBBEF10F0BDEF10F0B0EF10F046BE66
:10217C00CBEF10F0465007E10A0E455CD8B0C9EF22
:10218C0010F0CBEF10F0B0EF10F0330E1A6E170EFC
:10219C001B6E45C01CF046C01DF08BEC14F0030EFA
:1021AC000A6E330E0B6E0C6A020E6BEC14F03FC011
:1021BC0001F040C002F0030E046EE80E036EEFEC6B
:1021CC0014F001C02DF002C02EF041C001F042C04D
:1021DC0002F0000E046E640E036EEFEC14F001506E
:1021EC002D242F6E02502E20306E43C001F044C0BF
:1021FC0002F0000E046E0A0E036EEFEC14F00150A8
:10220C002F24316E02503020326E455031243D6EF9
:10221C00465032203E6E3DC02BF03EC02CF01200DA
:10222C0003680468CA80CAA81EEF11F020EF11F0F1
:10223C002BEF11F0000E046E010E036ECAB829EFDD
:10224C0011F02BEF11F024EF11F0CAAA30EF11F0BE
:10225C0032EF11F03DEF11F0000E046E040E036E20
:10226C00CABA3BEF11F03DEF11F036EF11F0CAA6F0
:10227C0042EF11F044EF11F04FEF11F0000E046E2D
:10228C00070E036ECAB64DEF11F04FEF11F048EF89
:10229C0011F0CCA854EF11F056EF11F061EF11F0E2
:1022AC00000E046E0F0E036ECCB85FEF11F061EFF1
:1022BC0011F05AEF11F0CA90CA82CAA868EF11F057
:1022CC006AEF11F075EF11F0000E046E020E036E42
:1022DC00CAB873EF11F075EF11F06EEF11F0CAAAD6
:1022EC007AEF11F07CEF11F087EF11F0000E046E15
:1022FC00050E036ECABA85EF11F087EF11F080EF6F
:10230C0011F0CAA68CEF11F08EEF11F099EF11F0CD
:10231C00000E046E080E036ECAB697EF11F099EF1B
:10232C0011F092EF11F0CCA89EEF11F0A0EF11F08C
:10233C00ABEF11F0000E046E000E036ECCB8A9EFDB
:10234C0011F0ABEF11F0A4EF11F0CA92CA84CAA835
:10235C00B2EF11F0B4EF11F0BFEF11F0000E046EFC
:10236C00030E036ECAB8BDEF11F0BFEF11F0B8EF5A
:10237C0011F0CAAAC4EF11F0C6EF11F0D1EF11F0B1
:10238C00000E046E060E036ECABACFEF11F0D1EF39
:10239C0011F0CAEF11F0CAA6D6EF11F0D8EF11F078
:1023AC00E3EF11F0000E046E090E036ECAB6E1EFF6
:1023BC0011F0E3EF11F0DCEF11F0CCA8E8EF11F025
:1023CC00EAEF11F0F5EF11F0000E046E0A0E036E39
:1023DC00CCB8F3EF11F0F5EF11F0EEEF11F0CA9469
:1023EC0003C001F004C002F012000C50D96EDA6A7E
:1023FC006F007FFFF6FF200EF76E0800F550250AE0
:10240C00D8A40BEF12F00DEF12F0CAEF12F00C5033
:10241C00D96EDA6ADF2A000E486E000E476E47C08E
:10242C004FF049684A680C50D96EDA6ADF50106E6A
:10243C00600043F0F6FF200EF76E0800F550640ABA
:10244C00D8B42BEF12F02DEF12F03CEF12F060002D
:10245C0043F0F6FF200EF76E0800F550690AD8A479
:10246C003AEF12F03CEF12F0C4EF12F00D50D96EAF
:10247C00DA6A020EDF26DF5CD96EDA6A6F0078FF4B
:10248C0011F06F0078FF12F00C50D96EDA6A102838
:10249C00DF6E200E156E12BE56EF12F059EF12F0D1
:1024AC00010E5AEF12F0000E0F6E15061550600F4C
:1024BC00D96EDA6A11C001F012C002F0000E046E7F
:1024CC000A0E036E3FEC13F001C007F002C008F0D7
:1024DC00A5EC14F00750300FDF6E11C001F012C0E4
:1024EC0002F0000E046E0A0E036EDDEC12F001C059
:1024FC0011F002C012F011501210D8B488EF12F083
:10250C008AEF12F092EF12F01550D8A490EF12F05F
:10251C0092EF12F05BEF12F01550D8B498EF12F066
:10252C009AEF12F0B9EF12F00F50D8B4A0EF12F0EE
:10253C00A2EF12F0B9EF12F015061550600FD96E1C
:10254C00DA6A2D0EDF6EB9EF12F01550600FD96EEE
:10255C00DA6ADF500E6E0E50016E026A0BC003F089
:10256C0097EC13F0152A200E1518D8A4C0EF12F012
:10257C00C2EF12F0ABEF12F0DCEF12F00C50D96E90
:10258C00DA6ADF2ADCEF12F00C50D96EDA6A6F00CF
:10259C007FFFF6FF200EF76E0800F550016E026A01
:1025AC000BC003F097EC13F0C4EF12F01200000E06
:1025BC00066E04BEE6EF12F0E4EF12F0ECEF12F050
:1025CC00036C041ED8B0042A010E066E02BEF3EF93
:1025DC0012F0F1EF12F0F9EF12F0016C021ED8B00C
:1025EC00022A010E061A000E086E000E076E03502A
:1025FC000410D8B404EF13F006EF13F02EEF13F021
:10260C00010E056E0EEF13F0D89003360436052A32
:10261C0004AE13EF13F015EF13F00AEF13F0D8908C
:10262C00073608360350015C04500258D8A021EF3D
:10263C0013F023EF13F028EF13F00350015E045056
:10264C00025A0780D89004320332052E15EF13F08E
:10265C000650D8B434EF13F036EF13F03AEF13F012
:10266C00076C081ED8B0082A07C001F008C002F099
:10267C001200000E066E02BE48EF13F046EF13F088
:10268C004EEF13F0016C021ED8B0022A010E066E3A
:10269C0004BE55EF13F053EF13F059EF13F0036C26
:1026AC00041ED8B0042A03500410D8B460EF13F001
:1026BC0062EF13F086EF13F0010E056E6AEF13F064
:1026CC00D89003360436052A04AE6FEF13F071EF81
:1026DC0013F066EF13F00350015C04500258D8A0BD
:1026EC007AEF13F07CEF13F080EF13F00350015EE0
:1026FC000450025AD89004320332052E71EF13F0B5
:10270C000650D8B48CEF13F08EEF13F092EF13F059
:10271C00016C021ED8B0022A01C001F002C002F006
:10272C0012000350D8B49DEF13F09FEF13F0A7EFF6
:10273C0013F00350D8A4A5EF13F0A7EF13F0ACEFF0
:10274C0013F0015048EC15F0ECEF13F00350D96E78
:10275C00DA6A0A0ED926DE50DE10D8B4B8EF13F0C0
:10276C00BAEF13F0D3EF13F00350D96EDA6A0A0EF6
:10277C00D9260350E16EE26A030EE126DE50E65CD8
:10278C00E650800A086EDE50800A0858D8B0D1EFA7
:10279C0013F0D3EF13F0ECEF13F00350D96EDA6AA9
:1027AC00030ED926DF50046E0350D96EDA6ADF505F
:1027BC000424D96EDA6A600007F0DFFF0350D96E8B
:1027CC00DA6A030ED926DE2A000EDD22120008EF8B
:1027DC0014F0600023F0F6FF600027F0F7FF000E06
:1027EC00F86E1F0EF76403D00800F55007D06F0089
:1027FC00DBFFE1FF6F00DFFFE2FFE75015EC15F0A8
:10280C00084A092A600023F0F6FF600027F0F7FF62
:10281C00000EF86E1F0EF76403D00800F55007D0B9
:10282C006F00DBFFE1FF6F00DFFFE2FFE750000905
:10283C00D8A423EF14F025EF14F0EFEF13F01200EF
:10284C00000E046E000E036E3FEF14F0000E066EC9
:10285C00000E056E054A062A065009E1A50E055C18
:10286C00D8A03BEF14F03DEF14F030EF14F0034A16
:10287C00042A0150035C02500458D8A048EF14F00D
:10288C004AEF14F02CEF14F0120017C019F057EFA8
:10289C0014F016C00BF0190E0C6E18C00DF0FBECFA
:1028AC0011F0600067F0F6FF200EF76E0800F5508F
:1028BC000009D8A464EF14F066EF14F04FEF14F095
:1028CC00000E176E000E166E12000D6E020E0D60CD
:1028DC0072EF14F074EF14F07DEF14F00A500F0B3C
:1028EC0080090E6E0E5024EC15F084EF14F00A5093
:1028FC000F0BC0090E6E0E5024EC15F00BC008F037
:10290C000CC009F0EDEC13F012001C0E1E6E1AC078
:10291C001FF0000E236E000E226E000E2A6E000EAB
:10292C00296E1F0E166E1BC017F01E0E186E4BEC88
:10293C0014F01A502224D96EDA6ADF6A120008BE2B
:10294C00AAEF14F0ACEF14F0B2EF14F007C007F0DC
:10295C0008C008F0BEEF14F007C009F008C00AF078
:10296C00091E0A1E094A0A2A09C007F00AC008F003
:10297C00120043EC15F0D8EC14F0000E0A6E010EA8
:10298C000B6E0B50D8A4200E0C6E010E6BEC14F0D9
:10299C000EEC10F02BC04DF02CC04EF0D4EF14F018
:1029AC00FEEFFFF0000E026E0F0E016E26EC14F01F
:1029BC00000EC56EC494C496010E24EC15F0380EAE
:1029CC0024EC15F00C0E24EC15F0060E24EC15F08E
:1029DC001200015003026F00CCFF05F06F00D0FF16
:1029EC0006F001500402F350062602500302F35085
:1029FC00062605C001F006C002F0120000EE60F0E1
:102A0C00200EEE6AE806FDE100EE47F0090EEE6AD4
:102A1C00E806FDE1000EF86E0001BFEF14F0076E42
:102A2C0060001FF0BDFFBC84BC860000BC96000E8D
:102A3C00026E010E016E26EC14F01200076E60009F
:102A4C001FF0BDFFBC94BC860000BC96000E026E4D
:102A5C00030E016E26EC14F01200000ECA6E000E6E
:102A6C00BA6E000E3A01406FF80EC26E1200CC988E
:102A7C00BC983A016099C488120033EC15F03DEC17
:062A8C0015F0120012001B
:020000040001F9
:04FFFC0004EF15F009
:020000040030CA
:0A000000F8FFFFFF9FFFFFFFFFFF67
:00000001FF
