:04000000FEEFFFF020
:1020000000682200000000000000B0240000000072
:102010006A23000000000000000000000000000033
:1020200000000000000000000000000000000000B0
:1020300000000000000000000000000000D82300A5
:10204000B6230094230000000048656C6C6F0D0AF5
:1020500000003E503F10D8B430EF10F032EF10F0D7
:102060003BEF10F03E503F10D8A439EF10F03BEF9B
:1020700010F040EF10F03C50FDEC11F094EF10F038
:1020800020EE0AF03E50D9263F50DA22DE50DE1014
:10209000D8B44DEF10F04FEF10F06AEF10F020EED3
:1020A0000AF03E50D9263F50DA2210EE03F03E509F
:1020B000E1263F50E222DE50E65CE650800A446EA4
:1020C000DE50800A4458D8B068EF10F06AEF10F084
:1020D00094EF10F020EE03F03E50D9263F50DA2264
:1020E0006F0078FF40F06F0074FF41F06000FBF07C
:1020F000D9FF6000FFF0DAFF6F0078FF42F06F0059
:1021000074FF43F040504224D96E41504320DA6EB0
:102110006000F3F0DFFF20EE03F03E50D9263F5081
:10212000DA22DE2A000EDD221200000EBA6E000E48
:10213000BB6E000EBC6E000EBD6E000EBE6EC268A1
:10214000C368C468FE0EC56E070EC66E3A014069CC
:1021500050696069FC0E706F070E806F000E416F52
:10216000000E516F000E616F000E716F000E816FD7
:10217000000E426F000E526F000E626F000E726F03
:10218000000E826F4369536963697369070E836F39
:1021900044695469646974690F0E846F000E5A6F44
:1021A000000E5B6F000E6A6F000E6B6F000E7A6F91
:1021B000000E7B6F190EE86F160E186F000E456F3C
:1021C000000E466F000E476F000E556F000E566FE3
:1021D000000E576F000E656F000E666F000E676F82
:1021E000000E856F000E866F000E876F120047503D
:1021F000D96EDA6A6F007FFFF6FF200EF76E000ED1
:10220000F86E0800F550250AD8A409EF11F00BEF7D
:1022100011F01DEF11F04750D96EDA6ADF2A000E77
:10222000346E000E336E33C039F03568366847506F
:10223000D96EDA6ADF2A33EF11F04750D96EDA6AC5
:102240006F007FFFF6FF200EF76E000EF86E08009D
:10225000F5503C6E3D6A45C03EF046C03FF029EC6B
:1022600010F017EF11F01200000E3D01D06F000EBC
:10227000D26F000ED46F000ED66F000ED86FB00E66
:10228000DA6F800EDB6F000EDC6F820EDD6F060EE4
:10229000DE6F2E0EDF6F000EE06F800EE16F000E1E
:1022A000E26F000E3A6E000E3B6E000E3C6EECECE0
:1022B00011F0000E3A6E000E3B6E000E3C6EDBEC31
:1022C00011F0000E3A6E000E3B6E000E3C6ECAEC32
:1022D00011F0000E386E000E376E12004BC04DF03C
:1022E0007CEF11F049C045F04AC046F04D0E476EF4
:1022F0004CC048F0F7EC10F0600037F1F6FF200E0C
:10230000F76E000EF86E0800F5500009D8A48BEFA8
:1023100011F08DEF11F072EF11F0000E4A6E000E09
:10232000496E1200D29A3901A191D280000E3A6E04
:10233000000E3B6E000E3C6E51EC12F03901A5917F
:10234000D282000E3A6E000E3B6E000E3C6E4AECDE
:1023500012F03901A79BD284000E3A6E000E3B6E3C
:10236000000E3C6E43EC12F01200000E3A6E3D017E
:10237000DFABBDEF11F0BFEF11F0C8EF11F0DAAB3A
:10238000C4EF11F0C6EF11F0C8EF11F0010E3A6E74
:102390003A5012003A503B103C10D8B4D2EF11F032
:1023A000D4EF11F0DAEF11F03AC02AF03BC02BF075
:1023B0003CC02CF012003A503B103C10D8B4E3EF74
:1023C00011F0E5EF11F0EBEF11F03AC02DF03BC04A
:1023D0002EF03CC02FF012003A503B103C10D8B405
:1023E000F4EF11F0F6EF11F0FCEF11F03AC030F01D
:1023F0003BC031F03CC032F012003B6EB5EC11F046
:102400000009D8B406EF12F008EF12F0FEEF11F059
:102410003B5058EC12F012004F0E4F6E000E496EFA
:10242000000E4A6E4EC04BF04F0E4C6E6EEC11F02B
:1024300012003AEC12F034EC11F0490E4E6E0CEC36
:1024400012F01DEF12F0FEEFFFF0600E3901D96FB0
:10245000000EDB6F000EDD6F080EDF6F000EDE6F0B
:10246000120000EE01F0390EEE6AE806FDE100010F
:1024700019EF12F025EC12F095EC10F034EC11F09D
:1024800092EC11F012003AC021F03BC022F03CC0A7
:1024900023F012003AC024F03BC025F03CC026F0E7
:1024A00012003AC027F03BC028F03CC029F01200CF
:0A24B0003A6E6000EBF0D2FD12005E
:020000040001F9
:04FFFC0031EF12F0DF
:020000040030CA
:0A0000008FFFF7FF9FFFFFFFFFFFD8
:00000001FF
