:04000000FEEFFFF020
:10200000009A2600000000000000322A00000000B4
:10201000DE280000000000000000000000000000BA
:1020200000000000000000000000000000000000B0
:10203000000000000000000000000000004C29002B
:102040002A29000829000000006D696E203A20311D
:102050003030204D61783A20313030302025640D09
:102060000A004D696E203A2031204D6178203A20D7
:1020700034302025640D0A0048656C6C6F20576F62
:0B208000726C642E2E2E2E0D0A000044
:10208C001F50D96EDA6A6F007FFFF6FF200EF76ED5
:10209C00000EF86E0800F550250AD8A458EF10F081
:1020AC005AEF10F01DEF11F01F50D96EDA6ADF2ACB
:1020BC00000E476E000E466E46C04CF048684968EC
:1020CC001F50D96EDA6ADF50236E60008FF0F6FF76
:1020DC00200EF76E000EF86E0800F550640AD8B4A6
:1020EC007AEF10F07CEF10F08DEF10F060008FF0B5
:1020FC00F6FF200EF76E000EF86E0800F550690A18
:10210C00D8A48BEF10F08DEF10F017EF11F02050DA
:10211C00D96EDA6A020EDF26DF5CD96EDA6A6F00DE
:10212C0078FF24F06F0078FF25F01F50D96EDA6A23
:10213C002328DF6E200E286E25BEA7EF10F0AAEF25
:10214C0010F0010EABEF10F0000E226E2806285096
:10215C00600FD96EDA6A24C013F025C014F0000E9B
:10216C00166E0A0E156E66EC12F013C019F014C040
:10217C001AF055EC14F01950300FDF6E24C001F03A
:10218C0025C002F0000E046E0A0E036E04EC12F071
:10219C0001C024F002C025F024502510D8B4D9EF8A
:1021AC0010F0DBEF10F0E3EF10F02850D8A4E1EFC3
:1021BC0010F0E3EF10F0ACEF10F02850D8B4E9EFCA
:1021CC0010F0EBEF10F00CEF11F02250D8B4F1EF4F
:1021DC0010F0F3EF10F00CEF11F028062850600F00
:1021EC00D96EDA6A2D0EDF6E0CEF11F02850600FED
:1021FC00D96EDA6ADF50216E2150036E046A1DC05D
:10220C0005F01EC006F034EC11F0282A200E281818
:10221C00D8A413EF11F015EF11F0FCEF10F033EF21
:10222C0011F01F50D96EDA6ADF2A33EF11F01F500C
:10223C00D96EDA6A6F007FFFF6FF200EF76E000E84
:10224C00F86E0800F550036E046A1DC005F01EC040
:10225C0006F034EC11F017EF11F0120005500610D7
:10226C00D8B43BEF11F03DEF11F046EF11F00550F3
:10227C000610D8A444EF11F046EF11F04BEF11F01B
:10228C000350C6EC14F09FEF11F020EE0AF005504D
:10229C00D9260650DA22DE50DE10D8B458EF11F0F1
:1022AC005AEF11F075EF11F020EE0AF00550D92617
:1022BC000650DA2210EE03F00550E1260650E22219
:1022CC00DE50E65CE650800A0B6EDE50800A0B583E
:1022DC00D8B073EF11F075EF11F09FEF11F020EE05
:1022EC0003F00550D9260650DA226F0078FF07F06C
:1022FC006F0074FF08F0600017F0D9FF60001BF04E
:10230C00DAFF6F0078FF09F06F0074FF0AF00750D6
:10231C000924D96E08500A20DA6E60000FF0DFFF36
:10232C0020EE03F00550D9260650DA22DE2A000EE4
:10233C00DD221200000EBA6E000EBB6E000EBC6EDB
:10234C00000EBD6E000EBE6EC268FD0EC36EC4687C
:10235C00FE0EC56E070EC66E3A014069FD0E506F3B
:10236C006069FC0E706F070E806F000E416F000EDF
:10237C00516F000E616F000E716F000E816F000EB9
:10238C00426F000E526F000E626F000E726F000EE5
:10239C00826F4369536963697369070E836F44697C
:1023AC005469646974690F0E846F000E5A6F000EC5
:1023BC005B6F000E6A6F000E6B6F000E7A6F000E73
:1023CC007B6F190EE86F160E186F000E456F000E1E
:1023DC00466F000E476F000E556F000E566F000EC5
:1023EC00576F000E656F000E666F000E676F000E64
:1023FC00856F000E866F000E876F1200000E066E42
:10240C0004BE0DEF12F00BEF12F013EF12F0036C91
:10241C00041ED8B0042A010E066E02BE1AEF12F08A
:10242C0018EF12F020EF12F0016C021ED8B0022A45
:10243C00010E061A000E086E000E076E03500410F3
:10244C00D8B42BEF12F02DEF12F055EF12F0010E65
:10245C00056E35EF12F0D89003360436052A04AE1B
:10246C003AEF12F03CEF12F031EF12F0D890073641
:10247C0008360350015C04500258D8A048EF12F003
:10248C004AEF12F04FEF12F00350015E0450025A63
:10249C000780D89004320332052E3CEF12F0065020
:1024AC00D8B45BEF12F05DEF12F061EF12F0076C35
:1024BC00081ED8B0082A07C001F008C002F01200AC
:1024CC00000E186E14BE6FEF12F06DEF12F075EF78
:1024DC0012F0136C141ED8B0142A010E186E16BE0E
:1024EC007CEF12F07AEF12F080EF12F0156C161EE2
:1024FC00D8B0162A15501610D8B487EF12F089EF01
:10250C0012F0ADEF12F0010E176E91EF12F0D890A1
:10251C0015361636172A16AE96EF12F098EF12F003
:10252C008DEF12F01550135C16501458D8A0A1EF73
:10253C0012F0A3EF12F0A7EF12F01550135E165025
:10254C00145AD89016321532172E98EF12F01850E4
:10255C00D8B4B3EF12F0B5EF12F0B9EF12F0136C70
:10256C00141ED8B0142A13C013F014C014F01200A7
:10257C00FBEC14F04DEC13F0000E016E000E026E2D
:10258C0039EC14F001C005F002C006F0D5EC14F0E3
:10259C00780E2E6EE2EC14F0620E2E6E000E1A6E99
:1025AC00010E196E000E1C6E280E1B6E07EC13F03C
:1025BC0019C02FF01AC030F0E2EC14F0490E2E6E58
:1025CC00000E1A6E640E196E030E1C6EE80E1B6E56
:1025DC0007EC13F019C02FF01AC030F0E2EC14F035
:1025EC00290E336E960E326E7F0EE82EFED7322EEB
:1025FC00FCD7332EFAD70000CB72CEEF12F0FEEFE1
:10260C00FFF0000E236E000E226E000E216E000EE7
:10261C00206E1B50195C1A50800A1D6E1C50800ACB
:10262C001D58D8B01CEF13F01EEF13F02AEF13F067
:10263C0019C022F01AC023F0010E1B24206E000ECC
:10264C001C20216E34EF13F0010E1B24226E000EA1
:10265C001C20236E19C020F01AC021F087EC13F057
:10266C000DC013F00EC014F02250205C156E2350D8
:10267C002158166E66EC12F0225013241E6E235055
:10268C0014201F6E1EC019F01FC01AF01200000E8D
:10269C003D01D06F000ED26F000ED46F000ED66FBE
:1026AC00000ED86FB00EDA6F800EDB6F000EDC6F91
:1026BC00820EDD6F060EDE6F2E0EDF6F000EE06FEA
:1026CC00800EE16F000EE26F000E016E000E026EC6
:1026DC00000E036EA6EC14F0000E016E000E026EDE
:1026EC00000E036E95EC14F0000E016E000E026EDF
:1026FC00000E036E84EC14F0000E4B6E000E4A6E4E
:10270C0012004DC001F04EC002F04FC003F050C09B
:10271C0004F02D0E056E7F0E066E950E076E4C0E98
:10272C00086EBDEC13F0010E01244D6E000E02205C
:10273C004E6E000E03204F6E000E0420506E4DC0E6
:10274C000FF04EC010F04FC011F050C012F0120E2E
:10275C00B5EF13F0D8901232113210320F32E82E3E
:10276C00B0EF13F00FC00DF010C00EF01200000E01
:10277C00096E000E0A6E000E0B6E000E0C6E01A0A0
:10278C00CAEF13F0CCEF13F0D4EF13F00550092679
:10279C0006500A2207500B2208500C22D8900536FE
:1027AC00063607360836D89004320332023201322C
:1027BC000150021003100410D8A4E7EF13F0E9EF56
:1027CC0013F0C5EF13F009C001F00AC002F00BC002
:1027DC0003F00CC004F012002BC02DF000EF14F02D
:1027EC0029C01DF02AC01EF02D0E1F6E2CC020F02B
:1027FC0046EC10F06000B7F0F6FF200EF76E000EFE
:10280C00F86E0800F5500009D8A40FEF14F011EF82
:10281C0014F0F6EF13F0000E2A6E000E296E120063
:10282C00D29A3901A191D280000E016E000E026E77
:10283C00000E036E12EC15F03901A591D282000E38
:10284C00016E000E026E000E036E0BEC15F03901DA
:10285C00A79BD284000E016E000E026E000E036E5A
:10286C0004EC15F0120001500210D8B440EF14F033
:10287C0042EF14F050EF14F0600007F0D9FF600045
:10288C000BF0DAFFFF0EDE6EFF0EDE6EFF0EDE6E5D
:10289C00FF0EDD6E016802680368046812001ABE40
:1028AC005AEF14F05CEF14F062EF14F019C019F049
:1028BC001AC01AF06EEF14F019C01BF01AC01CF0FD
:1028CC001B1E1C1E1B4A1C2A1BC019F01CC01AF014
:1028DC001200000E016E3D01DFAB77EF14F079EFC3
:1028EC0014F082EF14F0DAAB7EEF14F080EF14F0FA
:1028FC0082EF14F0010E016E015012000150021013
:10290C000310D8B48CEF14F08EEF14F094EF14F095
:10291C0001C034F002C035F003C036F01200015093
:10292C0002100310D8B49DEF14F09FEF14F0A5EF34
:10293C0014F001C037F002C038F003C039F01200B7
:10294C00015002100310D8B4AEEF14F0B0EF14F035
:10295C00B6EF14F001C03AF002C03BF003C03CF0FB
:10296C00120000EE60F0200EEE6AE806FDE100EECB
:10297C0034F01D0EEE6AE806FDE10001BEEF12F028
:10298C00026E6FEC14F00009D8B4CFEF14F0D1EF55
:10299C0014F0C7EF14F0025019EC15F01200FF0EF2
:1029AC000524076EFF0E0620086E07C04DF008C008
:1029BC004EF04F6A506A12002F0E316E000E296EC7
:1029CC00000E2A6E2EC02BF0310E2C6EF2EC13F092
:1029DC001200600E3901D96F000EDB6F000EDD6F37
:1029EC00080EDF6F000EDE6F1200EFEC14F0A0EC9F
:1029FC0011F04DEC13F016EC14F0120001C03DF088
:102A0C0002C03EF003C03FF0120001C040F002C013
:102A1C0041F003C042F0120001C043F002C044F088
:102A2C0003C045F01200016E600007F0D2FD1200E9
:020000040001F9
:04FFFC00B7EF14F057
:020000040030CA
:0A0000008FFFF7FF9FFFFFFFFFFFD8
:00000001FF
