:04000000FEEFFFF020
:1020000000CC2500000000000000CA2900000000EC
:102010007628000000000000000000000000000022
:1020200000000000000000000000000000000000B0
:1020300000000000000000000000000000E4280094
:0F204000C22800A0280000000025640D0A00003F
:102050001F50D96EDA6A6F007FFFF6FF200EF76E11
:10206000000EF86E0800F550250AD8A43AEF10F0DB
:102070003CEF10F0FFEF10F01F50D96EDA6ADF2A44
:10208000000E476E000E466E46C04CF04868496828
:102090001F50D96EDA6ADF50236E60008FF0F6FFB2
:1020A000200EF76E000EF86E0800F550640AD8B4E2
:1020B0005CEF10F05EEF10F06FEF10F060008FF04B
:1020C000F6FF200EF76E000EF86E0800F550690A54
:1020D000D8A46DEF10F06FEF10F0F9EF10F0205072
:1020E000D96EDA6A020EDF26DF5CD96EDA6A6F001B
:1020F00078FF24F06F0078FF25F01F50D96EDA6A60
:102100002328DF6E200E286E25BE89EF10F08CEF9D
:1021100010F0010E8DEF10F0000E226E28062850F0
:10212000600FD96EDA6A24C013F025C014F0000ED7
:10213000166E0A0E156E48EC12F013C019F014C09A
:102140001AF021EC14F01950300FDF6E24C001F0AA
:1021500025C002F0000E046E0A0E036EE6EC11F0CC
:1021600001C024F002C025F024502510D8B4BBEFE4
:1021700010F0BDEF10F0C5EF10F02850D8A4C3EF59
:1021800010F0C5EF10F08EEF10F02850D8B4CBEF60
:1021900010F0CDEF10F0EEEF10F02250D8B4D3EFE6
:1021A00010F0D5EF10F0EEEF10F028062850600F79
:1021B000D96EDA6A2D0EDF6EEEEF10F02850600F48
:1021C000D96EDA6ADF50216E2150036E046A1DC099
:1021D00005F01EC006F016EC11F0282A200E281873
:1021E000D8A4F5EF10F0F7EF10F0DEEF10F015EFD8
:1021F00011F01F50D96EDA6ADF2A15EF11F01F5067
:10220000D96EDA6A6F007FFFF6FF200EF76E000EC0
:10221000F86E0800F550036E046A1DC005F01EC07C
:1022200006F016EC11F0F9EF10F012000550061050
:10223000D8B41DEF11F01FEF11F028EF11F0055089
:102240000610D8A426EF11F028EF11F02DEF11F0B1
:10225000035092EC14F081EF11F020EE0AF00550DB
:10226000D9260650DA22DE50DE10D8B43AEF11F04B
:102270003CEF11F057EF11F020EE0AF00550D9268F
:102280000650DA2210EE03F00550E1260650E22255
:10229000DE50E65CE650800A0B6EDE50800A0B587A
:1022A000D8B055EF11F057EF11F081EF11F020EE9B
:1022B00003F00550D9260650DA226F0078FF07F0A8
:1022C0006F0074FF08F0600017F0D9FF60001BF08A
:1022D000DAFF6F0078FF09F06F0074FF0AF0075013
:1022E0000924D96E08500A20DA6E60000FF0DFFF73
:1022F00020EE03F00550D9260650DA22DE2A000E21
:10230000DD221200000EBA6E000EBB6E000EBC6E17
:10231000000EBD6E000EBE6EC268FD0EC36EC468B8
:10232000FE0EC56E070EC66E3A014069FD0E506F77
:102330006069FC0E706F070E806F000E416F000E1B
:10234000516F000E616F000E716F000E816F000EF5
:10235000426F000E526F000E626F000E726F000E21
:10236000826F4369536963697369070E836F4469B8
:102370005469646974690F0E846F000E5A6F000E01
:102380005B6F000E6A6F000E6B6F000E7A6F000EAF
:102390007B6F190EE86F160E186F000E456F000E5A
:1023A000466F000E476F000E556F000E566F000E01
:1023B000576F000E656F000E666F000E676F000EA0
:1023C000856F000E866F000E876F1200000E066E7E
:1023D00004BEEFEF11F0EDEF11F0F5EF11F0036C2B
:1023E000041ED8B0042A010E066E02BEFCEF11F0E6
:1023F000FAEF11F002EF12F0016C021ED8B0022ABF
:10240000010E061A000E086E000E076E035004102F
:10241000D8B40DEF12F00FEF12F037EF12F0010EFB
:10242000056E17EF12F0D89003360436052A04AE75
:102430001CEF12F01EEF12F013EF12F0D8900736D7
:1024400008360350015C04500258D8A02AEF12F05D
:102450002CEF12F031EF12F00350015E0450025ADB
:102460000780D89004320332052E1EEF12F006507A
:10247000D8B43DEF12F03FEF12F043EF12F0076CCB
:10248000081ED8B0082A07C001F008C002F01200E8
:10249000000E186E14BE51EF12F04FEF12F057EF0E
:1024A00012F0136C141ED8B0142A010E186E16BE4A
:1024B0005EEF12F05CEF12F062EF12F0156C161E78
:1024C000D8B0162A15501610D8B469EF12F06BEF79
:1024D00012F08FEF12F0010E176E73EF12F0D8901A
:1024E00015361636172A16AE78EF12F07AEF12F07C
:1024F0006FEF12F01550135C16501458D8A083EFEC
:1025000012F085EF12F089EF12F01550135E16509D
:10251000145AD89016321532172E7AEF12F018503E
:10252000D8B495EF12F097EF12F09BEF12F0136C06
:10253000141ED8B0142A13C013F014C014F01200E3
:10254000000E236E000E226E000E216E000E206E15
:102550001B50195C1A50800A1D6E1C50800A1D58B1
:10256000D8B0B5EF12F0B7EF12F0C3EF12F019C008
:1025700022F01AC023F0010E1B24206E000E1C2036
:10258000216ECDEF12F0010E1B24226E000E1C20D6
:10259000236E19C020F01AC021F020EC13F00DC0FA
:1025A00013F00EC014F02250205C156E23502158F9
:1025B000166E48EC12F0225013241E6E2350142085
:1025C0001F6E1EC019F01FC01AF01200000E3D0150
:1025D000D06F000ED26F000ED46F000ED66F000EBB
:1025E000D86FB00EDA6F800EDB6F000EDC6F820EDC
:1025F000DD6F060EDE6F2E0EDF6F000EE06F800EB9
:10260000E16F000EE26F000E016E000E026E000E12
:10261000036E72EC14F0000E016E000E026E000EDE
:10262000036E61EC14F0000E016E000E026E000EDF
:10263000036E50EC14F0000E4B6E000E4A6E12004A
:102640004DC001F04EC002F04FC003F050C004F086
:102650002D0E056E7F0E066E950E076E4C0E086EE3
:1026600056EC13F0010E01244D6E000E02204E6E4A
:10267000000E03204F6E000E0420506E4DC00FF070
:102680004EC010F04FC011F050C012F0120E4EEFBD
:1026900013F0D8901232113210320F32E82E49EF77
:1026A00013F00FC00DF010C00EF01200000E096EF6
:1026B000000E0A6E000E0B6E000E0C6E01A063EF92
:1026C00013F065EF13F06DEF13F005500926065077
:1026D0000A2207500B2208500C22D89005360636E5
:1026E00007360836D89004320332023201320150E4
:1026F000021003100410D8A480EF13F082EF13F03F
:102700005EEF13F009C001F00AC002F00BC003F045
:102710000CC004F01200C7EC14F0E6EC12F0000E4E
:10272000016E000E026E05EC14F001C005F002C04F
:1027300006F0A1EC14F0490E2E6E000E1A6E010E7A
:10274000196E000E1C6E640E1B6EA0EC12F019C008
:102750002FF01AC030F0AEEC14F0520E336E2B0E88
:10276000326E000EE82EFED7322EFCD7332EFAD76B
:1027700000D0CB729BEF13F0FEEFFFF02BC02DF0DB
:10278000CCEF13F029C01DF02AC01EF02D0E1F6ED5
:102790002CC020F028EC10F06000B7F0F6FF200EFF
:1027A000F76E000EF86E0800F5500009D8A4DBEFB4
:1027B00013F0DDEF13F0C2EF13F0000E2A6E000EDF
:1027C000296E1200D29A3901A191D280000E016EB9
:1027D000000E026E000E036EDEEC14F03901A591BE
:1027E000D282000E016E000E026E000E036ED7EC58
:1027F00014F03901A79BD284000E016E000E026E08
:10280000000E036ED0EC14F0120001500210D8B488
:102810000CEF14F00EEF14F01CEF14F0600007F052
:10282000D9FF60000BF0DAFFFF0EDE6EFF0EDE6EEA
:10283000FF0EDE6EFF0EDD6E01680268036804683D
:1028400012001ABE26EF14F028EF14F02EEF14F049
:1028500019C019F01AC01AF03AEF14F019C01BF0A1
:102860001AC01CF01B1E1C1E1B4A1C2A1BC019F080
:102870001CC01AF01200000E016E3D01DFAB43EFE9
:1028800014F045EF14F04EEF14F0DAAB4AEF14F009
:102890004CEF14F04EEF14F0010E016E01501200D7
:1028A000015002100310D8B458EF14F05AEF14F08E
:1028B00060EF14F001C034F002C035F003C036F010
:1028C0001200015002100310D8B469EF14F06BEF3E
:1028D00014F071EF14F001C037F002C038F003C0FB
:1028E00039F01200015002100310D8B47AEF14F03E
:1028F0007CEF14F082EF14F001C03AF002C03BF01C
:1029000003C03CF0120000EE60F0200EEE6AE80614
:10291000FDE100EE34F01D0EEE6AE806FDE1000177
:102920008BEF13F0026E3BEC14F00009D8B49BEF70
:1029300014F09DEF14F093EF14F00250E5EC14F056
:102940001200FF0E0524076EFF0E0620086E07C05A
:102950004DF008C04EF04F6A506A12002F0E316ED3
:10296000000E296E000E2A6E2EC02BF0310E2C6E3A
:10297000BEEC13F01200600E3901D96F000EDB6F50
:10298000000EDD6F080EDF6F000EDE6F1200BBEC75
:1029900014F082EC11F0E6EC12F0E2EC13F012000D
:1029A00001C03DF002C03EF003C03FF0120001C084
:1029B00040F002C041F003C042F0120001C043F0F9
:1029C00002C044F003C045F01200016E600007F041
:0429D000D2FD120022
:020000040001F9
:04FFFC0083EF14F08B
:020000040030CA
:0A0000008FFFF7FF9FFFFFFFFFFFD8
:00000001FF
