:04000000FEEFFFF020
:10200000004E2200000000000000582500000000E3
:1020100000000000000000000000000000000000C0
:1020200000000000000000000000000000000000B0
:1020300000000000000000000000000000B62400C6
:1020400094240072240000000000000EBA6E000EFE
:10205000BB6E000EBC6E000EBD6E000EBE6EC26882
:10206000FD0EC36EC468FE0EC56E070EC66E3A0145
:102070004069FD0E506F6069FC0E706F070E806F37
:10208000000E416F000E516F000E616F000E716FF8
:10209000000E816F000E426F000E526F000E626FD5
:1020A000000E726F000E826F436953696369736932
:1020B000070E836F44695469646974690F0E846FF5
:1020C000000E5A6F000E5B6F000E6A6F000E6B6F92
:1020D000000E7A6F000E7B6F190EE86F160E186FE8
:1020E000000E456F000E466F000E476F000E556FD5
:1020F000000E566F000E576F000E656F000E666F74
:10210000000E676F000E856F000E866F000E876FE2
:102110001200000E186E14BE92EF10F090EF10F047
:1021200098EF10F0136C141ED8B0142A010E186E1C
:1021300016BE9FEF10F09DEF10F0A3EF10F0156C9E
:10214000161ED8B0162A15501610D8B4AAEF10F0E3
:10215000ACEF10F0D0EF10F0010E176EB4EF10F0EE
:10216000D89015361636172A16AEB9EF10F0BBEF19
:1021700010F0B0EF10F01550135C16501458D8A0A2
:10218000C4EF10F0C6EF10F0CAEF10F01550135E58
:102190001650145AD89016321532172EBBEF10F085
:1021A0001850D8B4D6EF10F0D8EF10F0DCEF10F0E4
:1021B000136C141ED8B0142A13C013F014C014F0FA
:1021C0001200000E236E000E226E000E216E000E15
:1021D000206E1B50195C1A50800A1D6E1C50800A1C
:1021E0001D58D8B0F6EF10F0F8EF10F004EF11F032
:1021F00019C022F01AC023F0010E1B24206E000E1D
:102200001C20216E0EEF11F0010E1B24226E000E19
:102210001C20236E19C020F01AC021F061EC11F0CF
:102220000DC013F00EC014F02250205C156E235028
:102230002158166E89EC10F0225013241E6E235084
:1022400014201F6E1EC019F01FC01AF01200000EDD
:102250003D01D06F000ED26F000ED46F000ED66F0E
:10226000000ED86FB00EDA6F800EDB6F000EDC6FE1
:10227000820EDD6F060EDE6F2E0EDF6F000EE06F3A
:10228000800EE16F000EE26F000E016E000E026E16
:10229000000E036E5BEC12F0000E016E000E026E7B
:1022A000000E036E4AEC12F0000E016E000E026E7C
:1022B000000E036E39EC12F0000E396E000E386E0F
:1022C00012003AC001F03BC002F03CC003F03DC038
:1022D00004F02D0E056E7F0E066E950E076E4C0EE9
:1022E000086E97EC11F0010E01243A6E000E0220E8
:1022F0003B6E000E03203C6E000E04203D6E3AC083
:102300000FF03BC010F03CC011F03DC012F0120EB7
:102310008FEF11F0D8901232113210320F32E82EB6
:102320008AEF11F00FC00DF010C00EF01200000E79
:10233000096E000E0A6E000E0B6E000E0C6E01A0F0
:10234000A4EF11F0A6EF11F0AEEF11F00550092641
:1023500006500A2207500B2208500C22D89005364E
:10236000063607360836D89004320332023201327C
:102370000150021003100410D8A4C1EF11F0C3EFF4
:1023800011F09FEF11F009C001F00AC002F00BC07C
:1023900003F00CC004F012008EEC12F027EC11F0E8
:1023A000000E016E000E026E1DEC12F001C005F071
:1023B00002C006F06CEC12F0000E1A6E010E196EDF
:1023C000000E1C6E640E1B6EE1EC10F01950ACECAC
:1023D00012F0290E256E960E246E7F0EE82EFED783
:1023E000242EFCD7252EFAD70000CB72DCEF11F09B
:1023F000FEEFFFF0D29A3901A191D280000E016E5A
:10240000000E026E000E036EA5EC12F03901A591CC
:10241000D282000E016E000E026E000E036E9EEC64
:1024200012F03901A79BD284000E016E000E026EDD
:10243000000E036E97EC12F0120001500210D8B497
:1024400024EF12F026EF12F034EF12F0600007F0E4
:10245000D9FF60000BF0DAFFFF0EDE6EFF0EDE6EBE
:10246000FF0EDE6EFF0EDD6E016802680368046811
:102470001200015002100310D8B441EF12F043EFE4
:1024800012F049EF12F001C026F002C027F003C09D
:1024900028F01200015002100310D8B452EF12F0CD
:1024A00054EF12F05AEF12F001C029F002C02AF0E6
:1024B00003C02BF01200015002100310D8B463EFD8
:1024C00012F065EF12F06BEF12F001C02CF002C0B9
:1024D0002DF003C02EF01200FF0E0524076EFF0E34
:1024E0000620086E07C03AF008C03BF03C6A3D6A1F
:1024F0001200600E3901D96F000EDB6F000EDD6F28
:10250000080EDF6F000EDE6F120000EE26F0180ED0
:10251000EE6AE806FDE10001CCEF11F079EC12F073
:1025200025EC10F027EC11F0FAEC11F0120001C0CC
:102530002FF002C030F003C031F0120001C032F0C1
:1025400002C033F003C034F0120001C035F002C005
:1025500036F003C037F01200016E600007F0D2FDC4
:02256000120067
:020000040001F9
:04FFFC0085EF12F08B
:020000040030CA
:0A0000008FFFF7FF9FFFFFFFFFFFD8
:00000001FF
