:0400000010EF00F00D
:1000200034D83DD8000E206E0F0E216E42D86F00DE
:10003000D7FFCDFF02D824EF00F0000ECB80CBB667
:10004000010ECB90226E1200030E226016EF00F01C
:1000500022B003D822B20DD8EAD70F0EF66236EFDF
:1000600000F0600083F0F6FF08001200F62A080096
:100070001200000EF66242EF00F0600087F0F6FF1B
:1000800008001200F606080012003F01CD6A3F0189
:10009000BD6A3A01706B3F01800EC56E12003F01D0
:1000A000CB6A3F01BB6A3A01506B3F01F80EC36E49
:1000B0001200000EF66E010EF76E000EF86E0800CC
:1000C000120003D802D801D81200FF0E106EFF0EE6
:1000D000116E1006FEE1FF0E106E1106FAE112001D
:100100003F305B4F666D7D077F67777F393F797141
:020000040030CA
:0A000000F8FFFFFF9FFFFFFFFFFF67
:00000001FF
