:0400000010EF00F00D
:100020001FD828D831D8100E206E6F00D7FFCDFF13
:1000300033D832D831D80AD8F8D7010EF6260800BE
:100040002006F3E121D8100E206E12002006600079
:1000500083F0F6FF0800E9E117D8100E206E1200B9
:100060003F01CD6A3F01BD6A3A01706B3F01800ECE
:10007000C56E12003F01CB6A3F01BB6A3A01506B6B
:100080003F01F80EC36E1200000EF66E010EF76E01
:10009000000EF86E08001200FF0E106EFF0E116EBB
:0E00A0001006FEE1FF0E106E1106FAE11200CE
:100100003F305B4F666D7D077F67777F393F797141
:020000040030CA
:0A000000F8FFFFFF9FFFFFFFFFFF67
:00000001FF
