:04000000FEEFFFF020
:1020000000416E74686F6E79204D6579657200537A
:102010006C65636874610000000E046E000E036E50
:1020200025EF10F0000E066E000E056E054A062A1A
:10203000065009E1A50E055CD8A021EF10F023EFB2
:1020400010F016EF10F0034A042A0150035C02500E
:102050000458D8A02EEF10F030EF10F012EF10F06F
:1020600012000B6E020E0B6038EF10F03AEF10F01A
:1020700043EF10F009500F0B80090C6E0C50A1ECCF
:1020800010F04AEF10F009500F0BC0090C6E0C5005
:10209000A1EC10F00AC008F04FEC10F0120059EF5C
:1020A00010F0600023F0F6FF0800F55092EC10F0FD
:1020B000082A600023F0F6FF0800F5500009D8A4B4
:1020C00064EF10F066EF10F051EF10F01200000E08
:1020D000026E0F0E016E0CEC10F0000EC36E000EBF
:1020E000C56E010EA1EC10F0380EA1EC10F00C0E34
:1020F000A1EC10F0060EA1EC10F0120067EC10F04D
:10210000000E096E010E0A6E010E31EC10F0000E89
:10211000096E0F0E0A6E020E31EC10F08EEF10F009
:10212000FEEFFFF0076E60001FF0BBFFBD80BD82B9
:102130000000BD92000E026E010E016E0CEC10F05C
:102140001200076E60001FF0BBFFBD90BD82000053
:10215000BD92000E026E030E016E0CEC10F0120028
:0E216000000EF86E200EF76E00017EEF10F0FC
:020000040001F9
:04FFFC00B0EF10F062
:020000040030CA
:0A000000F8FFFFFF9FFFFFFFFFFF67
:00000001FF
