:04000000FEEFFFF020
:1020000000003901DC8D020EDF6F000E3A01606FB7
:10201000000EC46E000ECC6E3EEC10F078EC10F0AA
:102020004DEC10F05BEC10F0000E066E460E056EE7
:1020300026EC10F067EC10F0036E03B002D0CC9ADF
:1020400001D0CC8A1AEF10F0FEEFFFF0FF0E05165C
:10205000030E06167AA82FEF10F031EF10F038EFCC
:1020600010F0060ED89005360636E82E32EF10F046
:102070000650796E600017F078FF1200010EAE6E08
:10208000000EAD6E000EAF6E9D0EAB6E080EAA6E0A
:102090003901A495F00EAC6E1200550E3A01BF6FD7
:1020A000AA0EBF6FBF910A0E0B6F550EBF6FAA0E1F
:1020B000BF6FBF8112008C0E7A6E010E796E990E81
:1020C000786E3F015E51F30B04095E6F12007ABA1D
:1020D0006CEF10F06FEF10F0010E70EF10F0000ECB
:1020E0001200046A036A026A016A000101EF10F03B
:0A20F0007BEC10F01200AC8E120021
:020000040001F9
:04FFFC0071EF10F0A1
:020000040030CA
:0A000000F8FFFFFF9FFFFFFFFFFF67
:00000001FF
