:0400000010EF00F00D
:10002000000EC56ECD6EEC0E216E01E7E86C2FEC74
:1000300000F0140E206E97EC01F02164216007D0CF
:10004000216209D000D0000ECD92CD9498D1020E3D
:0E005000CD92CD8494D1010ECD82CD9490D16D
:10030000306E0A0E336A332A305EFDE23026330641
:1003100030C070F033C030F0336A332A305EFDE213
:0E0320003026330630C071F033C072F0120088
:10035000306E0A0E336A332A305EFDE230263306F1
:1003600030C060F033C030F0336A332A305EFDE2D3
:100370003026330630C061F033C062F01200226EC6
:020000040030CA
:0A000000F8FFFFFF9FFFFFFFFFFF67
:00000001FF
