:0400000010EF00F00D
:100020003F01CD6A3F01BD6A3A01706B3F01010E8D
:10003000C56EF60E216E21AE1FEF00F0E86C3CECB1
:1000400000F0F60E0A0E206E99EC01F00A0E21BEA9
:1000500038EF00F02164216007D0216209D000D080
:10006000000ECD92CD948BD1020ECD92CD8487D14E
:08007000010ECD82CD9483D175
:10030000306E0A0E336A332A305EFDE23026330641
:1003100030C070F033C030F0336A332A305EFDE213
:100320003026330630C071F021AE1200010E726F1C
:020330001200B9
:10035000306E0A0E336A332A305EFDE230263306F1
:1003600030C060F033C030F0336A332A305EFDE2D3
:100370003026330630C061F033C062F01200226EC6
:020000040030CA
:0A000000F8FFFFFF9FFFFFFFFFFF67
:00000001FF
