:0400000057EF20F0A6
:022000000000DE
:104008002B102B102B102B102B102B102B102B10D0
:104018002B102B102B102B102B102B102B102B10C0
:104028002B102B102B102B102B102B102B102B10B0
:104038002B102B102B102B102B102B102B102B10A0
:104048002B102B102B102B102B102B102B102B1090
:104058002B102B102B102B102B102B102B102B1080
:104068002B102B102B102B102B102B102B102B1070
:104078002B102B102B102B102B10E4102B102B10A7
:104088002B102B102B102B102B102B102B102B1050
:104098002B102B102B102B102B102B102B102B1040
:1040A8002B102B10FF0079EF22F0000E146E000E7B
:1040B800136E000E126E000E116E000E176E13C0F6
:1040C8001AF014C01BF0000E1C6E4FEC22F09FEF8C
:1040D80020F0CBA072EF20F074EF20F09FEF20F0DB
:1040E800060E1E6E130E1D6EAE0EE82EFED71D2E8A
:1040F800FCD71E2EFAD78CEF20F0CBA286EF20F04B
:1041080088EF20F08CEF20F0010E176E74EF20F08E
:10411800CBB091EF20F093EF20F081EF20F0175013
:10412800D8A499EF20F09BEF20F09FEF20F0134ADE
:10413800142A63EF20F01704D8A4A5EF20F0A7EF06
:1041480020F06DEF20F0000E176E11C01AF012C0AB
:104158001BF0010E1C6E4FEC22F0E5EF20F0CBA215
:10416800B8EF20F0BAEF20F0E5EF20F0060E1E6E53
:10417800130E1D6EAE0EE82EFED71D2EFCD71E2E7A
:10418800FAD7D2EF20F0CBA0CCEF20F0CEEF20F082
:10419800D2EF20F0010E176EBAEF20F0CBB2D7EFB6
:1041A80020F0D9EF20F0C7EF20F01750D8A4DFEFA8
:1041B80020F0E1EF20F0E5EF20F0114A122AA9EFF4
:1041C80020F01704D8A4EBEF20F0EDEF20F0B3EFC8
:1041D80020F0000ECD6E030E1E6E8A0E1D6E560E5A
:1041E800E82EFED71D2EFCD71E2EFAD7CD68030E5B
:1041F8001E6E8A0E1D6E560EE82EFED71D2EFCD79B
:104208001E2EFAD7000ECD6E11C01DF012C01EF082
:104218001D3A1E3AF00E1E161D500F0B1E12F00E00
:104228001D1613501D100D6E14501E100E6E120028
:10423800000E146E000E136E000E126E000E116E3C
:10424800000E176E13C01AF014C01BF0000E1C6E7F
:104258004FEC22F062EF21F0CBA035EF21F037EFE1
:1042680021F062EF21F0060E1E6E130E1D6EAE0ECB
:10427800E82EFED71D2EFCD71E2EFAD74FEF21F0C1
:10428800CBA249EF21F04BEF21F04FEF21F0010EC7
:10429800176E37EF21F0CBB054EF21F056EF21F035
:1042A80044EF21F01750D8A45CEF21F05EEF21F025
:1042B80062EF21F0134A142A26EF21F01704D8A43C
:1042C80068EF21F06AEF21F030EF21F0000E176E51
:1042D80011C01AF012C01BF0010E1C6E4FEC22F038
:1042E800A8EF21F0CBA27BEF21F07DEF21F0A8EF22
:1042F80021F0060E1E6E130E1D6EAE0EE82EFED7B2
:104308001D2EFCD71E2EFAD795EF21F0CBA08FEFEC
:1043180021F091EF21F095EF21F0010E176E7DEF5E
:1043280021F0CBB29AEF21F09CEF21F08AEF21F037
:104338001750D8A4A2EF21F0A4EF21F0A8EF21F0A4
:10434800114A122A6CEF21F01704D8A4AEEF21F01D
:10435800B0EF21F076EF21F0CA84000ECD6E11C0C7
:104368001DF012C01EF01D3A1E3AF00E1E161D500A
:104378000F0B1E12F00E1D1613501D100F6E145049
:064388001E10106E120071
:10439000CA80030E196E8A0E186E560EE82EFED7CE
:1043A000182EFCD7192EFAD7CA90030E196E8A0E52
:1043B000186E560EE82EFED7182EFCD7192EFAD7F7
:1043C000CA80060E196E130E186EAE0EE82EFED7BA
:1043D000182EFCD7192EFAD7CA90060E196E130E96
:1043E000186EAE0EE82EFED7182EFCD7192EFAD76F
:1043F000CA80080E196E9D0E186E060EE82EFED7A6
:10440000182EFCD7192EFAD7CA90030E196E8A0EF1
:10441000186E560EE82EFED7182EFCD7192EFAD796
:10442000CA80020E196E450E186EAA0EE82EFED72F
:10443000182EFCD7192EFAD7CA903901A79B110064
:104440000D500F1809E10E501018D8B42AEF22F0C1
:104450002CEF22F03CEF22F0CA801A0E1B6E5E0E8B
:104460001A6E6E0EE82EFED71A2EFCD71B2EFAD728
:1044700000D0CA904AEF22F0CA861A0E1B6E5E0E5A
:104480001A6E6E0EE82EFED71A2EFCD71B2EFAD708
:1044900000D0CA96000E0E6E000E0D6E12001BBEEE
:1044A00054EF22F056EF22F064EF22F01BBE62EFD1
:1044B00022F01B5009E10A0E1A5CD8A062EF22F02C
:1044C00064EF22F068EF22F0000E1B6E0A0E1A6EE7
:1044D0001A50010FD96EDA6ADF50CD6E1C04D8A4D1
:1044E00074EF22F076EF22F078EF22F0800ECD26E6
:1044F0001200CE0EF66E450EF76E000EF86E00EE50
:1045000001F010EE0CF009006F00D7FFEEFFE55050
:10451000E150F9E100EE0DF00B0EEE6AE806FDE168
:10452000080ED56E400ED66E000ED76E0001A8EFB5
:1045300022F0D28AD28ED28CD2843901878B978B8B
:10454000A79B000ED76E400ED66E080ED56E1200D9
:10455000EDEC22F01CEC21F059EC20F020EC22F0E4
:10456000ACEF22F057EF20F0000ECB6E070EC36EBB
:10457000000EBB6E000E3A01506F040E516F120018
:10458000000ECD6E000EC56E000EBD6E000E3A011F
:10459000706F1200000ECC6E000EBC6E000E3A0161
:1045A000606F040EC46E1200000ECA6E000EC26E62
:1045B000000EBA6E000E3A01406F1200D4EC22F0E9
:1045C000B4EC22F0C0EC22F0CAEC22F012003F065C
:1045D0005B4F666D7D077F670079DEEC22F099EC1A
:0645E00022F0CA82120065
:020000040030CA
:0A000000F8FFFFFF9FFFFFFFFFFF67
:00000001FF
