:04000000FEEFFFF020
:10200000000003680468CA80CAA809EF10F00BEF4B
:1020100010F016EF10F0000E046E010E036ECAB839
:1020200014EF10F016EF10F00FEF10F0CAAA1BEF2C
:1020300010F01DEF10F028EF10F0000E046E040EEB
:10204000036ECABA26EF10F028EF10F021EF10F05F
:10205000CBA02DEF10F02FEF10F03AEF10F0000EA4
:10206000046E070E036ECBB038EF10F03AEF10F0AD
:1020700033EF10F0CBA23FEF10F041EF10F04CEF38
:1020800010F0000E046E0F0E036ECBB24AEF10F08C
:102090004CEF10F045EF10F0CA90CA82CAA853EF77
:1020A00010F055EF10F060EF10F0000E046E020E0D
:1020B000036ECAB85EEF10F060EF10F059EF10F049
:1020C000CAAA65EF10F067EF10F072EF10F0000E83
:1020D000046E050E036ECABA70EF10F072EF10F0C6
:1020E0006BEF10F0CBA077EF10F079EF10F084EFEA
:1020F00010F0000E046E080E036ECBB082EF10F0ED
:1021000084EF10F07DEF10F0CBA289EF10F08BEF91
:1021100010F096EF10F0000E046E000E036ECBB2BE
:1021200094EF10F096EF10F08FEF10F0CA92CA847F
:10213000CAA89DEF10F09FEF10F0AAEF10F0000E6C
:10214000046E030E036ECAB8A8EF10F0AAEF10F0E9
:10215000A3EF10F0CAAAAFEF10F0B1EF10F0BCEF90
:1021600010F0000E046E060E036ECABABAEF10F03D
:10217000BCEF10F0B5EF10F0CBA0C1EF10F0C3EF43
:1021800010F0CEEF10F0000E046E090E036ECBB00F
:10219000CCEF10F0CEEF10F0C7EF10F0CBA2D3EFE2
:1021A00010F0D5EF10F0E0EF10F0000E046E0A0E04
:1021B000036ECBB2DEEF10F0E0EF10F0D9EF10F0CD
:1021C000CA94CA86CAA8E7EF10F0E9EF10F0F4EF5E
:1021D00010F0000E046E0B0E036ECAB8F2EF10F092
:1021E000F4EF10F0EDEF10F0CAAAF9EF10F0FBEFEA
:1021F00010F006EF11F0000E046E0C0E036ECABA5A
:1022000004EF11F006EF11F0FFEF10F0CBA00BEF91
:1022100011F00DEF11F018EF11F0000E046E0D0E1D
:10222000036ECBB016EF11F018EF11F011EF11F0B3
:10223000CBA21DEF11F01FEF11F02AEF11F0000EED
:10224000046E0E0E036ECBB228EF11F02AEF11F0E0
:1022500023EF11F0CA9603C001F004C002F012008F
:102260001368146815681668000E126E000E116E61
:10227000FF0E0A6E0968FF0E0C6E0B68FBEC14F083
:1022800048EF11F001EC10F001C013F002C014F09F
:1022900014BE4DEF11F04FEF11F042EF11F014BEEC
:1022A0005DEF11F0145007E10A0E135CD8B05BEF3C
:1022B00011F05DEF11F042EF11F013C001F014C006
:1022C00002F0B5EC14F06BEF11F001EC10F001C06E
:1022D00015F002C016F016BE70EF11F072EF11F09B
:1022E00065EF11F00D50D96EDA6A010EDBBE85EF95
:1022F00011F0010EDB5007E10A0EDE5CD8B083EF6F
:1023000011F085EF11F0CBEF11F016BE8AEF11F04E
:102310008CEF11F0B6EF11F016BE9AEF11F01650D7
:1023200007E10A0E155CD8B098EF11F09AEF11F0A2
:10233000B6EF11F013C009F014C00AF015C00BF08D
:1023400016C00CF0FBEC14F013C001F014C002F046
:10235000000E046E0A0E036E10EC15F015500124E9
:10236000116E16500220126E31EF12F00D50D96E20
:10237000DA6A600057F0DEFF60005BF0DDFF13C03B
:1023800011F014C012F0000E026E000E016EB5ECDA
:1023900014F031EF12F00A0E15181610D8A4D3EF6E
:1023A00011F0D5EF11F024EF12F00E50D96EDA6A69
:1023B000600057F0DEFF60005BF0DDFF13C011F03E
:1023C00014C012F0000E026E000E016EB5EC14F097
:1023D00024EF12F016BEEFEF11F0F1EF11F019EF4C
:1023E00012F016BEFFEF11F0165007E10A0E155C51
:1023F000D8B0FDEF11F0FFEF11F019EF12F013C09C
:1024000009F014C00AF015C00BF016C00CF0FBEC7C
:1024100014F013C001F014C002F0000E046E0A0E96
:10242000036E10EC15F015500124116E16500220A9
:10243000126E01EC10F00E50D96EDA6A600007F0EF
:10244000DEFF60000BF0DDFF0E50D96EDA6A0A0E77
:10245000DE18DE10D8A42FEF12F031EF12F0EAEF01
:1024600011F011C00DF012C00EF012000FBE3BEFC4
:1024700012F03DEF12F081EF12F00FBE4BEF12F0B1
:102480000F5007E1640E0E5CD8B049EF12F04BEF2D
:1024900012F081EF12F00FBE59EF12F00F5007E16A
:1024A0000A0E0E5CD8B057EF12F059EF12F061EF40
:1024B00012F00EC001F00FC002F0B5EC14F0D4EF32
:1024C00012F00EC001F00FC002F0000E046E0A0EF2
:1024D000036ECCEC13F001C009F002C00AF00EC08C
:1024E00001F00FC002F0000E046E0A0E036E2EEC17
:1024F00014F001C00BF002C00CF0FBEC14F0D4EFB0
:1025000012F00FAE8FEF12F09D0E0E5CFF0E0F5803
:10251000D8A08DEF12F08FEF12F09DEF12F00FBEEA
:102520009BEF12F00F5009E1640E0E5CD8A09BEFF8
:1025300012F09DEF12F0A9EF12F0000E0A6E0B0ED2
:10254000096E000E0C6E0B0E0B6EFBEC14F0D4EF4C
:1025500012F00EC001F00FC002F0FF0E046E03680F
:1025600010EC15F001C00EF002C00FF00EC001F02B
:102570000FC002F0000E046E0A0E036ECCEC13F0D6
:1025800001C009F002C00AF00EC001F00FC002F055
:10259000000E046E0A0E036E2EEC14F001C00BF058
:1025A00002C00CF086EC14F012007FEC15F0000E67
:1025B000206E000E1F6E000E1E6E000E1D6E1F0E92
:1025C0000D6E1D0E0E6E30EC11F00DC019F00EC028
:1025D0001AF0F7EF12F019C00EF01AC00FF036EC37
:1025E00012F001EC10F001C01FF002C020F020BE7C
:1025F00003EF13F0205009E10B0E1F5CD8A003EF8E
:1026000013F005EF13F0EBEF12F020BE13EF13F011
:10261000205007E10F0E1F5CD8B011EF13F013EF3D
:1026200013F0EBEF12F01F0E0D6E1D0E0E6E30EC60
:1026300011F00DC01BF00EC01CF02BEF13F01BC0EF
:102640000EF01CC00FF036EC12F001EC10F001C0DF
:102650001DF002C01EF00A0E1D181E10D8A433EF84
:1026600013F035EF13F01FEF13F01FC00DF020C073
:102670000EF019C00FF01AC010F01BC011F01CC0F2
:1026800012F063EC13F00DC017F00EC018F055EF08
:1026900013F017C00EF018C00FF036EC12F001EC7A
:1026A00010F001C01FF002C020F00F0E1F18201004
:1026B000D8A45DEF13F05FEF13F049EF13F0D7EFFD
:1026C00012F0FEEFFFF0000E166E000E156EA9EF71
:1026D00013F00FC001F010C002F011C003F012C0DF
:1026E00004F08FEC15F001C015F002C016F0C7EF32
:1026F00013F00FC001F010C002F011C003F012C0BF
:1027000004F088EC15F001C015F002C016F0C7EF18
:1027100013F00FC007F010C008F011C009F012C08C
:102720000AF039EC15F007C015F008C016F0C7EF35
:1027300013F00FC009F010C00AF011C00BF012C066
:102740000CF048EC15F009C015F00AC016F0C7EF00
:1027500013F00DC013F00EC014F01450000AD8B4DA
:10276000B4EF13F0C7EF13F013500B0AD8B469EFAE
:1027700013F0070AD8B479EF13F0010AD8B489EF3F
:1027800013F0030AD8B499EF13F0C7EF13F015C094
:102790000DF016C00EF01200000E066E04BED5EF4E
:1027A00013F0D3EF13F0DBEF13F0036C041ED8B07B
:1027B000042A010E066E02BEE2EF13F0E0EF13F002
:1027C000E8EF13F0016C021ED8B0022A010E061ABF
:1027D000000E086E000E076E03500410D8B4F3EF1D
:1027E00013F0F5EF13F01DEF14F0010E056EFDEF81
:1027F00013F0D89003360436052A04AE02EF14F025
:1028000004EF14F0F9EF13F0D890073608360350B0
:10281000015C04500258D8A010EF14F012EF14F02D
:1028200017EF14F00350015E0450025A0780D8904D
:1028300004320332052E04EF14F00650D8B423EF0F
:1028400014F025EF14F029EF14F0076C081ED8B02F
:10285000082A07C001F008C002F01200000E066E40
:1028600002BE37EF14F035EF14F03DEF14F0016CB9
:10287000021ED8B0022A010E066E04BE44EF14F008
:1028800042EF14F048EF14F0036C041ED8B0042A91
:1028900003500410D8B44FEF14F051EF14F075EF5B
:1028A00014F0010E056E59EF14F0D890033604367B
:1028B000052A04AE5EEF14F060EF14F055EF14F04B
:1028C0000350015C04500258D8A069EF14F06BEF7C
:1028D00014F06FEF14F00350015E0450025AD890C8
:1028E00004320332052E60EF14F00650D8B47BEFAB
:1028F00014F07DEF14F081EF14F0016C021ED8B0DB
:10290000022A01C001F002C002F0120009500A10B0
:10291000D8A48DEF14F08FEF14F093EF14F0000EA5
:102920000A6E0A0E096E080ECC6E0950210FD96E80
:10293000DA6ADF50CD6E070E0D6E7D0EE82EFED7E3
:102940000D2EFCD70000040ECC6E0B50210FD96E5B
:10295000DA6ADF50800FCD6E070E0D6E7D0EE82E09
:10296000FED70D2EFCD70000120002BEBAEF14F005
:10297000BCEF14F0CAEF14F002BEC8EF14F002501E
:1029800009E10A0E015CD8A0C8EF14F0CAEF14F0F8
:10299000CEEF14F0000E026E0A0E016E040ECC6E25
:1029A0000150210FD96EDA6ADF50CD6E070E036E2B
:1029B0007D0EE82EFED7032EFCD70000120002BECB
:1029C000E6EF14F0E4EF14F0EAEF14F0000E026EFC
:1029D0000A0E016E080ECC6E0150210FD96EDA6A14
:1029E000DF50CD6E070E036E7D0EE82EFED7032E50
:1029F000FCD7000012000BC001F00CC002F0B5ECD7
:102A000014F0C80E00D0E82EFDD709C001F00AC0AE
:102A100002F0DFEC14F0C80E00D0E82EFDD7120053
:102A2000015003026F00CCFF05F06F00D0FF06F0ED
:102A300001500402F350062602500302F35006260A
:102A400005C001F006C002F012002C0EF66E2B0E2F
:102A5000F76E000EF86E00EE21F010EE0CF009009B
:102A60006F00D7FFEEFFE550E150F9E10001D5EF2F
:102A700012F007C001F008C002F009C003F00AC05C
:102A800004F010EC15F001C007F002C008F01200CD
:102A900009C001F00AC002F00BC003F00CC004F042
:102AA000CCEC13F001C009F002C00AF01200000ED5
:102AB000C56E000ECD6E000EBD6E000E3A01706F39
:102AC0001200000ECC6E000EBC6E000E3A01606F5C
:102AD000000EC46E1200000ECB6E000EBB6E000E18
:102AE0003A01506F030EC36E1200000ECA6E000E44
:102AF000BA6E000E3A01406FF00EC26E120075EC15
:102B000015F06BEC15F061EC15F057EC15F01200B8
:102B10000350015C016E04500258026E1200035013
:102B20000124016E04500220026E12003F065B4F2A
:082B3000666D7D077F670079E7
:020000040001F9
:04FFFC0025EF15F0E8
:020000040030CA
:0A000000F8FFFFFF9FFFFFFFFFFF67
:00000001FF
