:04000000FEEFFFF020
:10200000000036EC10F02CEC10F0020ECB6E6000ED
:1020100007F0CDFFC80E00D0E82EFDD7010ECB6E25
:1020200060000BF0CDFFC80E00D0E82EFDD705EF05
:1020300010F0FEEFFFF0800EF66E200EF76E000E31
:10204000F86E09006F00D4FF01F009006F00D4FFA3
:1020500002F0000101EF10F0000EC56E000ECD6E13
:10206000000EBD6E000E3A01706F1200000EC36EBE
:10207000000ECB6E000EBB6E000E3A01506F1200C8
:022080003F0619
:020000040001F9
:04FFFC001BEF10F0F7
:00000001FF
