:04000000FEEFFFF020
:1020000000000E680F68CA80CAA809EF10F00BEF35
:1020100010F016EF10F0000E0F6E010E0E6ECAB823
:1020200014EF10F016EF10F00FEF10F0CAAA1BEF2C
:1020300010F01DEF10F028EF10F0000E0F6E040EE0
:102040000E6ECABA26EF10F028EF10F021EF10F054
:10205000CBA02DEF10F02FEF10F03AEF10F0000EA4
:102060000F6E070E0E6ECBB038EF10F03AEF10F097
:1020700033EF10F0CA90CA82CAA841EF10F043EFC4
:1020800010F04EEF10F0000E0F6E020E0E6ECAB87A
:102090004CEF10F04EEF10F047EF10F0CAAA53EFDC
:1020A00010F055EF10F060EF10F0000E0F6E050EFF
:1020B0000E6ECABA5EEF10F060EF10F059EF10F03C
:1020C000CBA065EF10F067EF10F072EF10F0000E8C
:1020D0000F6E080E0E6ECBB070EF10F072EF10F0B6
:1020E0006BEF10F0CBA277EF10F079EF10F084EFE8
:1020F00010F0000E0F6E000E0E6ECBB282EF10F0DD
:1021000084EF10F07DEF10F0CA92CA84CAA88BEF5A
:1021100010F08DEF10F098EF10F0000E0F6E030E20
:102120000E6ECAB896EF10F098EF10F091EF10F025
:10213000CAAA9DEF10F09FEF10F0AAEF10F0000E6A
:102140000F6E060E0E6ECABAA8EF10F0AAEF10F0CE
:10215000A3EF10F0CBA0AFEF10F0B1EF10F0BCEF99
:1021600010F0000E0F6E090E0E6ECBB0BAEF10F02D
:10217000BCEF10F0B5EF10F0CBA2C1EF10F0C3EF41
:1021800010F0CEEF10F0000E0F6E0A0E0E6ECBB2F6
:10219000CCEF10F0CEEF10F0C7EF10F0CA94CA8663
:1021A000CAA8D5EF10F0D7EF10F0E2EF10F0000E54
:1021B0000F6E0B0E0E6ECAB8E0EF10F0E2EF10F0EB
:1021C000DBEF10F0CAAAE7EF10F0E9EF10F0F4EF40
:1021D00010F0000E0F6E0C0E0E6ECABAF2EF10F079
:1021E000F4EF10F0EDEF10F0CBA0F9EF10F0FBEFF3
:1021F00010F006EF11F0000E0F6E0D0E0E6ECBB04C
:1022000004EF11F006EF11F0FFEF10F0CBA20BEF8F
:1022100011F00DEF11F018EF11F0000E0F6E0E0E11
:102220000E6ECBB216EF11F018EF11F011EF11F0A6
:10223000CA960EC00CF00FC00DF012000DBE23EFB9
:1022400011F025EF11F033EF11F00DBE31EF11F069
:102250000D5009E10A0E0C5CD8A031EF11F033EFFC
:1022600011F037EF11F0000E0D6E0A0E0C6E080E15
:10227000CC6E0C50010FD96EDA6ADF50CD6E070EAE
:102280000E6E7D0EE82EFED70E2EFCD7000012003B
:102290009DEC11F093EC11F089EC11F07FEC11F052
:1022A00001EC10F00CC012F00DC013F012C00CF0D5
:1022B00013C00DF01EEC11F00B0E116E260E106EF9
:1022C0005E0EE82EFED7102EFCD7112EFAD750EF57
:1022D00011F0FEEFFFF04E0EF66E230EF76E000EBD
:1022E000F86E00EE01F010EE0BF009006F00D7FF62
:1022F000EEFFE550E150F9E1000148EF11F0000E6A
:10230000C56E000ECD6E000EBD6E000E3A01706FF0
:102310001200000ECC6E000EBC6E000E3A01606F13
:10232000000EC46E1200000ECB6E000EBB6E000ECF
:102330003A01506F030EC36E1200000ECA6E000EFB
:10234000BA6E000E3A01406FF00EC26E12003F06E8
:092350005B4F666D7D077F67009D
:020000040001F9
:04FFFC006BEF11F0A6
:020000040030CA
:0A000000F8FFFFFF9FFFFFFFFFFF67
:00000001FF
